:03000000020549AD
:0C054900787FE4F6D8FD75814E02059025
:0A08990052554E204D6F64653A0081
:0D081F00014B00014A00014C00024800009E
:1006CB001208A31207C2120847D2AF7BFF7A087930
:1006DB0099E4FDFF120755E54CFB7A00753401E4F4
:1006EB00F535FD7F091204B87F057E0012083380B3
:0106FB00DA24
:03000B000205D516
:1005D500C0E0C0F0C083C082C0D075D000C000C0EC
:0D05E50001C002C003C004C005C006C0076D
:1005F200758A00758CEE1206608F4B7E00EF6401E7
:100602007015AD4CFCED7005754C018018ED640160
:100612004C7012F54C800EEF64024E7008E54C648B
:10062200017002B2A0E54C701AFFFE12085A8F4AFE
:10063200D3EF948074809480400720A104C2A080EC
:0306420002D2A041
:10064500D007D006D005D004D003D002D001D00009
:0B065500D0D0D082D083D0F0D0E032B3
:100847005389F0438901E4F58A758CEEC28DD28C09
:03085700D2A92201
:0808C1007F027EEFDEFEDFFC8A
:0108C900220C
:10083300AD07AC06ED1DAE0470011C4E6005120839
:04084300C180F1225D
:05088E00120893D29056
:060893000000000000223D
:0A08A300D290120893D2910208933C
:0A08AD00D29112088EC29102089346
:0E072B0025E0FF12077D120739AF0512077D8A
:10073900E4FFD29012089330910DEFC394FF7480B7
:0C074900948050030F80F0C290020893CF
:0A08B700C29112088ED2910208933C
:10077D00E4FEEEC39408748094805011EF25E0FFE1
:10078D00C290120893929112088E0E80E5C29012BB
:07079D000893D290020893BB
:1006FC00C290120893D291E4FEEEC39408748094D5
:10070C00805019D290120893D291EF25E0FDA2915E
:0F071C00E4334DFFC2901208930E80DD02089364
:10080900AE07AC031208ADEE12072BAF0412077D39
:060819001207390208B7C6
:0207A400AC07A0
:1007A6001208ADEC12072B1208ADEC25E04401FF50
:0C07B60012077D1207391206FC0208B77A
:07000300120809E4FEFF22D0
:1007DB008B458A4689471207A4AB45AA46A947EF22
:0707EB001202E4E4FEFF220C
:0908CA00AB077D407F48020003EA
:10085A00EF4440FD7B007A0079447F481207DBAF02
:01086A004449
:01086B00226A
:06069600AB077F017E00AE
:10069C00D3EF9400EE940040257DC7EDD394007405
:1006AC0080948040127C01ECD39400748094804040
:0E06BC00031C80F31D80E4EF1F70D51E80D25A
:0106CA00220D
:10087E00120696C2A7C2A6C2A58B80D2A7C2A72275
:0707F2007417252EF8E6FF45
:1007F900120696C2A7D2A6C2A58B80D2A7C2A722EB
:1007C2007F3812087E7F0C12087E7F0612087E7F19
:0907D2000112087E7F8002087EFE
:10086C00ED7004AA078004EF2440FAEA4480FF02EA
:02087C00087EF4
:100755008B308A31893212086CAB30AA31A932123A
:1007650002CB60130532E5327002053114F912022D
:08077500CBFF1207F980E2221C
:0404B8008F308D31C3
:1004BC00E4F540F541F542E53570047F3080027F6C
:1004CC00208F437C007D0AAF03AE021202F6ED24AE
:1004DC0030FFAE40054074362EF8A6077C007D0A2E
:1004EC00AF03AE021202F6AA06AB07D3EB9400EAF6
:1004FC0094004006E540953440C9E540C39534501E
:10050C000CAF40054074362FF8A64380EDAD31AFEB
:10051C003012086CE54024FFF542E434FFF541C38A
:10052C00E54164809480401474362542F8E6FF124D
:0C053C0007F9E542154270E7154180E325
:010548002290
:040359008F088D0973
:10035D00AF0DAE0CAD0BAC0A12024A8E118F12AC62
:10036D0011AD12E4120211A804A905AA06AB07AF3C
:10037D000DAE0CAD0BAC0A1200118F168E158D142F
:10038D008C13E4F52CF52DF52EAF10FEEF70047DDA
:10039D003080027D20AB05EF4E70047F3080027FF0
:1003AD00208F2FAE11AF127C007D0A1202F6ED24C4
:1003BD0030FFAE2B052B74172EF8A607AE11AF121A
:1003CD007C007D0A1202F68E118F12D3E512940075
:1003DD00E51194004006E52B950E40C7E52BC3951E
:1003ED000E500CAF2B052B74172FF8A60380EDAD17
:1003FD0009AF0812086CE52B24FFF52EE434FFF548
:10040D002DC3E52D64809480400D1207F2E52E1565
:10041D002E70EE152D80EA7F2E1207F9E4F52BF5DF
:10042D002CE52CC3950F5063AF16AE15AD14AC1360
:10043D00E4FBFA792078411201068F168E158D1482
:10044D008C1312024AEF2430FFAE2B052B74172E9E
:10045D00F8A607AF16AE15AD14AC13C004C005C099
:10046D0006C00712024AAC07E4120216A804A90539
:10047D00AA06AB07D007D006D005D0041200118F05
:10048D00168E158D148C13052C8096E4F52DF52EF6
:10049D00C3E52E952B7480F8652D98500D1207F23B
:0A04AD00052EE52E70EA052D80E60D
:0104B7002222
:06082C00014D01014E0028
:10066000E54D6401702430B20320B31E054ED3E57E
:100670004E940474809480401AE4F54EF54D20B2F7
:10068000037F012220B30C7F022230B20630B30375
:05069000754D017F0023
:010695002242
:10000E000202B6E86480F8E933E83360110460F068
:10001E00ED33EC337009E8FCE9FDEAFEEBFF220458
:10002E0060DED3EB9FEA9EE99DE8C2E78CF0C2F753
:10003E0095F0400CE8CCF8E9CDF9EACEFAEBCFFB1F
:10004E0012028185D0F05804700320D5B3E80470F5
:10005E00075002B2D50202C092D5EC0460F7E4CC90
:10006E00C0E0C398F8603B94186008400DD0E0FBE8
:10007E00020298E4FBFAC9FC8028E830E406E4C9E1
:10008E00FBE4CAFCE830E305E4C9CACBFCE854073C
:10009E006010F8C3E913F9EA13FAEB13FBEC13FC47
:1000AE00D8F130F52FC3E49CFCEF9BFFEE9AFEEDEA
:1000BE0099FDD0E0FBEF4E4D4C701222DB03020295
:1000CE00BDEC2CFCEF33FFEE33FEED33FDED30E7F0
:1000DE00EB020298EF2BFFEE3AFEED39FDD0E0FB7E
:1000EE0050130BBB00030202C0ED13FDEE13FEEF27
:0800FE0013FFEC13FC02029851
:10010600EC4D6011E8497017ED33EC3304600DE4F3
:10011600FCFFFEFD22E933E8330470F80202B61252
:10012600028158046009E4CC248150062850090253
:1001360002C02840030202BDC0E0EB4A7044B98009
:1001460006D0E0FB0202ACEF4E701CBD8008EBFF50
:10015600EAFEE9FD80EBE98DF0A4FEE5F00201EF91
:10016600E9CDF9EAFEEBFFEF89F0A4FCE5F0CE89D4
:10017600F0A42EFFE435F0CD89F0A42DFEE435F091
:100186008067EF4E7005BD80D780C3EF8BF0A4ACBF
:10019600F0EE8BF0A42CFCE435F0F8EF8AF0A42CFA
:1001A600E5F038FCE433CB8DF0A42CFCE5F03BF80D
:1001B600EE8AF0A42CFCE5F038F8E433CF89F0A4FD
:1001C6002CFCE5F038CF3400CE89F0A42FFFE5F003
:1001D6003EFEE433C98DF0A42EFEE5F039CD8AF05B
:1001E600A42FFFE5F03EFEE43DFD33D0E0FB5007D3
:1001F6000BBB000F0202C0EC2CFCEF33FFEE33FE0C
:06020600ED33FD02029839
:10020C0075F020800E75F010800575F0087D007E6D
:10021C00007F003392D530D50312034BEC334010E2
:10022C00EF33FFEE33FEED33FDEC33FCD5F0ED2276
:0E023C00E5F0247EA2D513CC92E7CDCEFF22B2
:10024A00EDD2E7CD33EC3392D524814006E4FFFEAC
:10025A00FDFC22FCE4CFCECDCC24E0501174FF800B
:10026A00EDC3CC13CCCD13CDCE13CECF13CF0470A8
:07027A00F030D5DE02034B5A
:10028100E9D2E7C933E833F892D5EDD2E7CD33ECC3
:0702910033FC5002B2D5223C
:10029800EC30E7100FBF000C0EBE00080DBD0004C7
:1002A8000BEB6014A2D5EB13FCED92E7FD2274FF73
:1002B800FCFDFEFF22E480F8A2D574FF13FC7D80CC
:0302C800E480EFE0
:100555000206CBE493A3F8E493A34003F68001F2EB
:1005650008DFF48029E493A3F85407240CC8C333A7
:10057500C4540F4420C8834004F456800146F6DF76
:10058500E4800B010204081020408090081FE47EDF
:10059500019360BCA3FF543F30E509541FFEE4936B
:1005A500A360010ECF54C025E060A840B8E493A332
:1005B500FAE493A3F8E493A3C8C582C8CAC583CA5D
:1005C500F0A3C8C582C8CAC583CADFE9DEE780BE15
:0108320000C5
:1002CB00BB010689828A83E0225002E722BBFE0231
:0902DB00E32289828A83E4932264
:1002E400BB010689828A83F0225002F722BBFE01F9
:0202F400F322F3
:1002F600BC000BBE0029EF8DF084FFADF022E4CCEC
:10030600F875F008EF2FFFEE33FEEC33FCEE9DECB4
:10031600984005FCEE9DFE0FD5F0E9E4CEFD22EDFA
:10032600F8F5F0EE8420D21CFEADF075F008EF2F44
:10033600FFED33FD4007985006D5F0F222C398FD35
:050346000FD5F0EA22D2
:0E034B00C3E49FFFE49EFEE49DFDE49CFC22C3
:00000001FF
