:0300000002091BD7
:0C091B00787FE4F6D8FD75816402096263
:100AA100636F6D62696E6174696F6E206C6F636BE9
:100AB100002D2D2D2D20206C6F636B20202D2D2DD1
:100AC1002D00707764203A20202020202020202033
:100AD1002020002D2D2D2D20206F70656E20202DC2
:100AE1002D2D2D006E6577203A20202020202020FA
:100AF10020202020002D2D2D2D207375636365731B
:060B0100732D2D2D2D00C7
:100B0700114A000000000000000000000000000083
:100B1700000000075B36363636363600103A0102DB
:100B2700030A0405060A0708090A0A000A0AC1098E
:100B3700C10BC10A012200072300000000000000CA
:100B4700012A00012B00072C00000000000000070D
:080B5700330000000000000063
:100B6900120C83120C9CD2A4750DFF750E0A750F19
:100B7900A17B007A00794A12006A7B007A00794ADF
:100B8900E4FDFF120C34750DFF750E0A750FB27B6B
:100B9900007A00794A12006A7B007A00794A7D015D
:0A0BA900E4FF120C34120A2F80FB47
:02082E008F0930
:10083000E5227013750DFF750E0A750FC3FB7A0064
:10084000794A12006A8059E509640F7028D3E522BD
:10085000940174809480401D1522744F2522F876EF
:100860002074222522F8E4F6FB7A00794A7D01FF04
:10087000120C34803AC3E522940774809480502F80
:1008800074392509F8E62430FF744F2522F8A607AD
:1008900074392509F8E62430FF74222522F8A607CA
:1008A0007B007A00794A7D01E4FF120C340522D3E3
:1008B000E5229406748094804060E5096410705AC3
:1008C000C209F522785B7C00FDFB7A0079231205D2
:1008D00001EF3395E04F7021750DFF750E0A750F0E
:1008E000D4FB7A00794A12006A7B007A00794A7D4B
:1008F00001E4FF120C34C2A422750DFF750E0A75B7
:100900000FB27B007A00794A12006A7B007A007984
:0A0910004A7D01E4FF120C34D2A46A
:01091A0022BA
:02067C008F09E4
:10067E00E52B6003020779E52A7013750DFF750EE1
:10068E000A750FC3FB7A00794A12006A8059E50990
:10069E00640F7028D3E52A940174809480401D1550
:1006AE002A744F252AF87620742B252AF8E4F6FBB7
:1006BE007A00794A7D01FF120C34803AC3E52A9400
:1006CE000774809480502F74392509F8E62430FF82
:1006DE00744F252AF8A60774392509F8E62430FF49
:1006EE00742B252AF8A6077B007A00794A7D01E44F
:1006FE00FF120C34052AD3E52A9406748094805098
:10070E000302082DE5096410600302082DF52A780E
:10071E005B7C00FDFB7A00792C120501EF3395E02E
:10072E004F7024750DFF750E0A750FE5FB7A007973
:10073E004A12006A7B007A00794A7D01E4FF120CAE
:10074E0034052A752B0122C20A750DFF750E0A7526
:10075E000FB27B007A00794A12006A7B007A007928
:10076E004A7D01E4FF120C34D2A422E52B64016011
:10077E000302082DE509640F7028D3E52A9401744D
:10078E00809480401D152A744F252AF876207432E5
:10079E00252AF8E4F6FB7A00794A7D01FF120C3423
:1007AE00803AC3E52A940774809480502F743925BB
:1007BE0009F8E62430FF744F252AF8A60774392568
:1007CE0009F8E62430FF7432252AF8A6077B007A52
:1007DE0000794A7D01E4FF120C34052AD3E52A94F0
:1007EE0006748094804038E50964107032C20AF5B0
:1007FE002A750DFF750E0A750FF6FB7A00794A12EF
:10080E00006A7B007A00794A7D01E4FF120C34E421
:0F081E00F52B785B7C00FDFB7A0079331205EA3D
:01082D0022A8
:100A2F00E4F508E56464017068856308E5636003B5
:100A3F00E4F563AF087E00EF64047007200904D269
:100A4F00098018EF64084E7007200B04D20B800B3F
:100A5F00EF640C4E7005200A02D20A300905AF0868
:100A6F0012082E300B23750DFF750E0A750FB27B12
:100A7F00007A00794A12006A7B007A00794A7D0178
:100A8F00E4FF120C34C20BD2A4300A05AF081206D1
:010A9F007CDA
:010AA0002233
:100C9C00758901758A78758CECC28DD28CD2A9D2EB
:020CAC00AF2275
:03000B00020BB332
:100BB300C0E0C0F0C083C082C0D075D000C000C008
:100BC30001C002C003C004C005C006C007758A780F
:100BD300758CEC1209A7D007D006D005D004D0033A
:100BE300D002D001D000D0D0D082D083D0F0D0E0DA
:010BF30032CF
:100BF400C2A68F807F017E00120C05D2A77F057EDE
:010C040000EF
:100C0500D3EF9400EE940040257DC7EDD394007496
:100C150080948040127C01ECD394007480948040D1
:0E0C2500031C80F31D80E4EF1F70D51E80D2EB
:010C3300229E
:0A0CC000C2A7C2A5120BF4C2A722BE
:0A0CCA00C2A7D2A5120BF4C2A722A4
:100C83007F38120CC07F0C120CC07F06120CC07F81
:090C930001120CC07F80020CC0AC
:100CAE00ED7004AB078004EF2440FBEB4480FF02A1
:020CBE000CC068
:100C34008B0A8A0B890C120CAEAB0AAA0BA90C12F4
:100C4400036A6013050CE50C7002050B14F912031A
:080C54006AFF120CCA80E222C3
:090B5F0001630001640001620061
:1009A70075900FAF90EF640F606CAF64EF706705E1
:1009B70062AD90ED640F606FD3E56294027480942A
:1009C700804064EF7061F56275640175900FAF90B8
:1009D700EF24F5601024FE601114601324077012D1
:1009E700756301800D756302800875630380037565
:1009F70063047590F0AF90EF2450600B24E0600B18
:100A070024F0600B2470227404800674088002743A
:100A17000C2563F56322AF90EF640F700AE56464F9
:070A2700017004F564F563A2
:010A2E0022A5
:10092700020B69E493A3F8E493A34003F68001F272
:1009370008DFF48029E493A3F85407240CC8C333D1
:10094700C4540F4420C8834004F456800146F6DFA0
:10095700E4800B0102040810204080900B07E47E1E
:10096700019360BCA3FF543F30E509541FFEE49395
:10097700A360010ECF54C025E060A840B8E493A35C
:10098700FAE493A3F8E493A3C8C582C8CAC583CA87
:10099700F0A3C8C582C8CAC583CADFE9DEE780BE3F
:010B6800008C
:10036A00BB010689828A83E0225002E722BBFE0291
:09037A00E32289828A83E49322C4
:10000E00E519240DF8E6051922780A300702780D55
:10001E00E475F00112064602036A2000EB7F2ED231
:10002E00008018EF540F2490D43440D4FF30040BCA
:10003E00EF24BFB41A0050032461FFE51A600215C5
:10004E001A051DE51D7002051C30070D780AE475B2
:10005E00F001120646EF020634020C5C7403D2075E
:10006E008003E4C207F5198B0A8A0B890CE4F51A92
:10007E00F51CF51DE51A60077F2012004980F57505
:10008E001BFFC201C200C202C203C205C206C208E1
:10009E00120017FF700D3007057F0012005AAF1DBA
:1000AE00AE1C22B4255FC2D5C204120017FF24D0A5
:1000BE00B40A00501A75F00A781A30D50508B6FF42
:1000CE000106C6A426F620D5047002D20380D924D8
:1000DE00CFB41A00EF5004C2E5D20402025AD20184
:1000EE0080C6D20080C0D20280BCD2D580BAD205E2
:1000FE0080B47F201200492002077401B51A004017
:10010E00F112000EFF120049020082D208D20680C0
:10011E009512000EFB12000EFA12000EF94A4B70E9
:10012E0006792B7A037BFF20022EE51A602A7E00C9
:10013E008E8275830012060760060EEE651B70F048
:10014E00C2D5EBC0E0EAC0E0E9C0E0EE1202A1D0F9
:10015E00E0F9D0E0FAD0E0FB12036AFF60AAEBC030
:10016E00E0EAC0E0E9C0E0120049D0E02401F9D095
:10017E00E03400FAD0E0FBE51B0460DCD51BD9802F
:10018E00877BFF7A02799DD202809C79108002795A
:10019E0008C206C2088008D2D5790A8004790AC23C
:1001AE00D5E51B047002F51BE4FAFDFEFF12000EEE
:1001BE00FC7B0820011312000EFD7B1030000A128A
:1001CE00000EFE12000EFF7B20EC3382D592D5502E
:1001DE0013C3E43000069FFFE49EFEE42001039D5E
:1001EE00FDE49CFCE4CBF8C201EC700CCFCECDCC80
:1001FE00E824F8F870F38017C3EF33FFEE33FEED0B
:10020E0033FDEC33FCEB33FB994002FB0FD8E9EBEB
:10021E00300105F8D0E0C448B201C0E00AEC4D4E02
:10022E004F78207B0070C2EAB51B0040BCC0E012C4
:10023E0002A3D0F0D0E0200104C4C0E0C4B201C0DB
:10024E00F0120032D0F0D5F0EB0200821206560109
:10025E001F5301995800F04C00EC42019D4F01A52F
:0F026E004401A54901054301AB55018F46018F9E
:10027D0045018F47034B5000F42D00F82E011B2B29
:10028D0000FC2301192003342A00B4480000011397
:10029D003F3F3F00790AA2D5200314300509B9105C
:1002AD00020404B9080104A2D5200602500104205D
:1002BD0002689202B51A005034C0E07F2030031955
:1002CD007F30A20272067205500F1202FAC202C2EC
:1002DD0006C205C2087F30800F300503E9C0E01269
:1002ED000049300503D0E0F9D0E0B51ACC30051740
:1002FD007F30B9100C1200497F583004077F788089
:10030D0003B908031200493002057F2D0200497F11
:10031D00202008F87F2B2006F322920280CF286E32
:10032D00756C6C2900D20112000E3001F8C20178F3
:10033D001A30D50108F60200B42D50434958120069
:10034D000E2403B405004001E49003469312003AD5
:0D035D00743A12003AD203751A0402019995
:10038300E3F5F009E208B5F06D606B80F3E3F5F097
:1003930009E608B5F060605E80F387F009E608B50A
:1003A300F054605280F487F009E208B5F0486046E3
:1003B30080F488828C8387F009E0A3B5F038603637
:1003C30080F488828C8387F009E493A3B5F02760D7
:1003D3002580F388828C83E3F5F009E0A3B5F0165A
:1003E300601480F388828C83E3F5F009E493A3B56A
:1003F300F004600280F20204AE808580E7808E8084
:10040300D2803C8015806C807E809B80B5808B8001
:10041300A1804F8070803A0204BA89828A83ECFA01
:10042300E493F5F0A3C8C582C8CCC583CCE493A3F9
:10043300C8C582C8CCC583CCB5F070606E80E18935
:10044300828A83E493F5F0A3E208B5F05E605C80F2
:10045300F289828A83E0F5F0A3E608B5F04D604B9C
:1004630080F389828A83E0F5F0A3E208B5F03C606B
:100473003A80F389828A83E493F5F0A3E608B5F022
:100483002A602880F2805389828A83ECFAE493F508
:10049300F0A3C8C582C8CCC583CCE0A3C8C582C8B5
:1004A300CCC583CCB5F004600280E27FFFB5F002D7
:1004B3000F2240027F012289828A83ECFAE0F5F061
:1004C300A3C8C582C8CCC583CCE0A3C8C582C8CCA9
:1004D300C583CCB5F0D560D380E389828A83ECFAF7
:1004E300E0F5F0A3C8C582C8CCC583CCE493A3C808
:1004F300C582C8CCC583CCB5F0B160AF80E288F0CB
:10050300ED2402B4040050A3F582EB2402B40400EA
:0B051300509923234582239003FC73C2
:10051E00E709F60870FA8046E709F20870FA803E9D
:10052E0088828C83E709F0A370FA807EE309F608CF
:10053E0070FA8076E309F20870FA806E88828C83F6
:10054E00E309F0A370FA806289828A83E0A3F60839
:10055E0070FA805689828A83E0A3F20870FA804A84
:10056E0080D280FA80C680D4806580F2803180107F
:10057E0080A680EA809A80A880DA80E280CA8031E4
:10058E0089828A83ECFAE493A3C8C582C8CCC5835A
:10059E00CCF0A3C8C582C8CCC583CC70E9800D89C8
:1005AE00828A83E493A3F60870F9ECFAA9F0EDFBC6
:1005BE002289828A83ECFAE0A3C8C582C8CCC5839F
:1005CE00CCF0A3C8C582C8CCC583CC70EA80DD89C7
:1005DE00828A83E493A3F20870F980CE88F0ED242A
:1005EE0002B4040050C4F582EB2402B4040050BAE5
:0905FE00232345822390056E734E
:10060700BB010CE58229F582E5833AF583E02250A8
:1006170006E92582F8E622BBFE06E92582F8E222F2
:0D062700E58229F582E5833AF583E493220C
:10063400BB010689828A83F0225002F722BBFE01A5
:02064400F3229F
:10064600FAE6FB0808E6F925F0F618E6CA3AF622B5
:10065600D083D082F8E4937012740193700DA3A333
:1006660093F8740193F5828883E473740293686047
:06067600EFA3A3A380DF47
:100C5C00EFB40A07740D120C67740A309811A89936
:100C6C00B8130CC2983098FDA899C298B811F630F8
:070C7C0099FDC299F59922D0
:00000001FF
