:03000000020624D1
:0C062400787FE4F6D8FD75814A02066B71
:1007C9004D6F6465203A2053544F502020005374D4
:1007D90065704D73203A202534642020004D6F64E4
:1007E90065203A2043572020004D6F6465203A2048
:1007F90043435720000000000000000000000000F3
:050809000000000000EA
:0B090E00010A02020B00640208000056
:1004EE00E4F52278237C00FD7BFF7A0779FEFE7F00
:1004FE001012043AC2AF1209221209641208DF75F3
:10050E0036FF7537077538C97B007A0079231200DC
:10051E006A7B007A007923E4FDFF1208907536FF9E
:10052E007537077538D7850B39850C3A7B007A00FD
:10053E00792312006A7B007A0079237D01E4FF1291
:10054E000890D2AFE4FF1207798F22EF6401700D8D
:10055E00F50A7536FF7537077538E68012E52264A1
:10056E0002701E750A017536FF7537077538F2FB76
:10057E007A00792312006A7B007A007923E4FD80E9
:10058E0045E522640370467464250CF50CE4350BC6
:10059E00F50BD3E50C94E8E50B6480948340067567
:1005AE000B03750CE87536FF7537077538D7850B55
:1005BE0039850C3A7B007A00792312006A7B007A27
:1005CE000079237D01E4FF120890020552E52264B2
:1005DE00046003020552749C250CF50C74FF350B58
:1005EE00F50BC3648094805005E4F50BF50C75365D
:1005FE00FF7537077538D7850B39850C3A7B007A2E
:10060E0000792312006A7B007A0079237D01E4FFD2
:06061E00120890020552D3
:100922005389F0438901758A18758CFCC28DD28C6B
:03093200D2A92225
:03000B00020719D0
:10071900C0E0C0F0C083C082C0D075D000C000C0A6
:0D07290001C002C003C004C005C006C00727
:10073600758A18758CFC0509E50970020508D395BC
:100746000CE50B6480F8E508648098400BAF0A124C
:08075600080E7508007509008A
:10075E00D007D006D005D004D003D002D001D000EF
:0B076E00D0D0D082D083D0F0D0E03299
:04091900020D0000CB
:1008F800EF24FF9290ED24FF9291EB24FF9292E572
:060908004A24FF92932235
:1006B000EFB4080050589006BDF82828730206D5FC
:1006C0000206D70206DF0206E60206ED0206F50282
:1006D00006FD0207048037754A017B01E48034E49B
:1006E000F54A7B01802DE4F54A7B018004E4F54A5C
:1006F000FB7D01801FE4F54AFB7D01800DE4F54A96
:10070000FBFD8006754A01E4FBFD7F018007754A09
:0907100001E4FBFDFF1208F822D0
:10080E00EFFD7C006401701A050EE50E7002050DF9
:10081E00D39407E50D648094804022E4F50DF50E27
:10082E00801BED4C7017E50E150E7002150DC3E50D
:10083E000D648094805006750D00750E07AF0E0284
:02084E0006B0F2
:04091D00020F0000C5
:08095B007F127EEBDEFEDFFCE3
:010963002271
:09096400D2B0D2B1D2B2D2B3225A
:10077900EF64017004F50FF510E510450F702D3089
:10078900B00930B10630B20320B32112095B750FED
:100799000075100120B0037F012220B1037F0222DE
:1007A90020B2037F032220B3147F042230B00E301D
:0F07B900B10B30B20830B305E4F50FF5107F0037
:0107C800220E
:10085000C2A58F807F017E00120861D2A77F057E2E
:010860000097
:10086100D3EF9400EE940040257DC7EDD39400743E
:1008710080948040127C01ECD39400748094804079
:0E088100031C80F31D80E4EF1F70D51E80D293
:01088F002246
:0A094700C2A7C2A6120850C2A722E0
:0A095100C2A7D2A6120850C2A722C6
:1008DF007F381209477F0C1209477F061209477F9D
:0908EF00011209477F800209474C
:10093500ED7004AB078004EF2440FBEB4480FF021D
:02094500094760
:100890008B338A348935120935AB33AA34A9351222
:1008A000046060130535E5357002053414F912044F
:0808B00060FF12095180E222F1
:100630000204EEE493A3F8E493A34003F68001F2EE
:1006400008DFF48029E493A3F85407240CC8C333CB
:10065000C4540F4420C8834004F456800146F6DF9A
:10066000E4800B010204081020408090090EE47E13
:10067000019360BCA3FF543F30E509541FFEE4938F
:10068000A360010ECF54C025E060A840B8E493A356
:10069000FAE493A3F8E493A3C8C582C8CAC583CA81
:1006A000F0A3C8C582C8CAC583CADFE9DEE780BE39
:0109210000D5
:10036A00E709F608DFFA8046E709F208DFFA803E75
:10037A0088828C83E709F0A3DFFA8032E309F60862
:10038A00DFFA8078E309F208DFFA807088828C83CA
:10039A00E309F0A3DFFA806489828A83E0A3F6087E
:1003AA00DFFA805889828A83E0A3F208DFFA804C58
:1003BA0080D280FA80C680D4806980F2803380102F
:1003CA0080A680EA809A80A880DA80E280CA803398
:1003DA0089828A83ECFAE493A3C8C582C8CCC58310
:1003EA00CCF0A3C8C582C8CCC583CCDFE9DEE780E0
:1003FA000D89828A83E493A3F608DFF9ECFAA9F05F
:10040A00EDFB2289828A83ECFAE0A3C8C582C8CCB4
:10041A00C583CCF0A3C8C582C8CCC583CCDFEADECD
:10042A00E880DB89828A83E493A3F208DFF980CC2F
:10043A0088F0EF60010E4E60C388F0ED2402B40428
:10044A000050B9F582EB2402B4040050AF232345CF
:06045A0082239003BA7337
:10046000BB010689828A83E0225002E722BBFE029A
:09047000E32289828A83E49322CD
:10000E00E5422436F8E60542227833300702783688
:10001E00E475F0011204B80204602000EB7F2ED2CA
:10002E00008018EF540F2490D43440D4FF30040BCA
:10003E00EF24BFB41A0050032461FFE5436002159C
:10004E00430546E5467002054530070D7833E475E5
:10005E00F0011204B8EF0204A60208B87403D20726
:10006E008003E4C207F5428B338A348935E4F543C5
:10007E00F545F546E54360077F2012004980F5758A
:10008E0044FFC201C200C202C203C205C206C208B8
:10009E00120017FF700D3007057F0012005AAF4691
:1000AE00AE4522B4255FC2D5C204120017FF24D07C
:1000BE00B40A00501A75F00A784330D50508B6FF19
:1000CE000106C6A426F620D5047002D20380D924D8
:1000DE00CFB41A00EF5004C2E5D20402025AD20184
:1000EE0080C6D20080C0D20280BCD2D580BAD205E2
:1000FE0080B47F201200492002077401B5430040EE
:10010E00F112000EFF120049020082D208D20680C0
:10011E009512000EFB12000EFA12000EF94A4B70E9
:10012E0006792B7A037BFF20022EE543602A7E00A0
:10013E008E8275830012047960060EEE654470F0AF
:10014E00C2D5EBC0E0EAC0E0E9C0E0EE1202A1D0F9
:10015E00E0F9D0E0FAD0E0FB120460FF60AAEBC039
:10016E00E0EAC0E0E9C0E0120049D0E02401F9D095
:10017E00E03400FAD0E0FBE5440460DCD544D980DD
:10018E00877BFF7A02799DD202809C79108002795A
:10019E0008C206C2088008D2D5790A8004790AC23C
:1001AE00D5E544047002F544E4FAFDFEFF12000E9C
:1001BE00FC7B0820011312000EFD7B1030000A128A
:1001CE00000EFE12000EFF7B20EC3382D592D5502E
:1001DE0013C3E43000069FFFE49EFEE42001039D5E
:1001EE00FDE49CFCE4CBF8C201EC700CCFCECDCC80
:1001FE00E824F8F870F38017C3EF33FFEE33FEED0B
:10020E0033FDEC33FCEB33FB994002FB0FD8E9EBEB
:10021E00300105F8D0E0C448B201C0E00AEC4D4E02
:10022E004F78207B0070C2EAB5440040BCC0E0129B
:10023E0002A3D0F0D0E0200104C4C0E0C4B201C0DB
:10024E00F0120032D0F0D5F0EB0200821204C80199
:10025E001F5301995800F04C00EC42019D4F01A52F
:0F026E004401A54901054301AB55018F46018F9E
:10027D0045018F47034B5000F42D00F82E011B2B29
:10028D0000FC2301192003342A00B4480000011397
:10029D003F3F3F00790AA2D5200314300509B9105C
:1002AD00020404B9080104A2D5200602500104205D
:1002BD0002689202B543005034C0E07F203003192C
:1002CD007F30A20272067205500F1202FAC202C2EC
:1002DD0006C205C2087F30800F300503E9C0E01269
:1002ED000049300503D0E0F9D0E0B543CC30051717
:1002FD007F30B9100C1200497F583004077F788089
:10030D0003B908031200493002057F2D0200497F11
:10031D00202008F87F2B2006F322920280CF286E32
:10032D00756C6C2900D20112000E3001F8C20178F3
:10033D004330D50108F60200B42D50434958120040
:10034D000E2403B405004001E49003469312003AD5
:0D035D00743A12003AD2037543040201996C
:10047900BB010CE58229F582E5833AF583E0225038
:1004890006E92582F8E622BBFE06E92582F8E22282
:0D049900E58229F582E5833AF583E493229C
:1004A600BB010689828A83F0225002F722BBFE0135
:0204B600F3222F
:1004B800FAE6FB0808E6F925F0F618E6CA3AF62245
:1004C800D083D082F8E4937012740193700DA3A3C3
:1004D80093F8740193F5828883E4737402936860D7
:0604E800EFA3A3A380DFD7
:1008B800EFB40A07740D1208C3740A309811A89986
:1008C800B8130CC2983098FDA899C298B811F630A0
:0708D80099FDC299F5992278
:00000001FF
