:03000000020B26CA
:0C0B2600787FE4F6D8FD758151020B6D5C
:100D120064697374616E63203A2025662020202066
:100D220000000000000000000000000000000000C1
:010D320000C0
:100D33007C64EF4E60131CEC60087D0A1DED60F6C9
:090D430080FAEF1F70EC1E80E93C
:010D4C002284
:100C2300E4F525F524F523F52278267C00FD7BFFEA
:100C33007A0D7923FE7F101205A6120003120D7F91
:100C4300120D66120D4D120BB28F258E248D238C3F
:100C5300227539FF753A0D753B128F3F8E3E8D3DE0
:100C63008C3C7B007A0079261207137B007A00798B
:100C730026E4FDFF120CC37F647E00120D3380C394
:040DC600020800001F
:05000300C2A1D2A02201
:100D7F005389F0438901E4F58AF58CD28DC28CD268
:040D8F00A9D2AF2214
:100D4D00D2A1000000000000000000000000000023
:090D5D00000000000000C2A12208
:03000B00020DA53E
:0D0DA500C0E00509E50970020508D0E03244
:100BB200E4F539F538F537F536FFFEFDFC30A0FDDA
:100BC200D28C20A0FDC28CAE08AF09E4FCFD7BFFF5
:100BD2007AFFF9F8120624A804A905AA06AB07AF02
:100BE2008CEFFEE4FCFD2BFBEA3EFAED39F9EC3822
:100BF200F8AF8AE4FEEB2FFFEE3AFEED39FDEC385A
:100C0200FCE4F58CF58AF508F5091201147B967A55
:100C120043798B783C12000E8F398E388D378C36A3
:010C220022AF
:100C8300C2A58F807F017E00120C94D2A77F057EC0
:010C93000060
:100C9400D3EF9400EE940040257DC7EDD394007407
:100CA40080948040127C01ECD39400748094804042
:0E0CB400031C80F31D80E4EF1F70D51E80D25C
:010CC200220F
:0A0DB200C2A7C2A6120C83C2A7223A
:0A0DBC00C2A7D2A6120C83C2A72220
:100D66007F38120DB27F0C120DB27F06120DB27FC4
:090D760001120DB27F80020DB2E2
:100D9300ED7004AB078004EF2440FBEB4480FF02BB
:020DA3000DB28F
:100CC3008B368A378938120D93AB36AA37A9381277
:100CD30005CC60130538E5387002053714F91205A1
:080CE300CCFF120DBC80E222DF
:10000E00EC4D6011E8497017ED33EC3304600DE4EC
:10001E00FCFFFEFD22E933E8330470F8020187127B
:10002E00015258046009E4CC24815006285009027C
:10003E00019128400302018EC0E0EB4A7044B98062
:10004E0006D0E0FB02017DEF4E701CBD8008EBFF79
:10005E00EAFEE9FD80EBE98DF0A4FEE5F00200F783
:10006E00E9CDF9EAFEEBFFEF89F0A4FCE5F0CE89CD
:10007E00F0A42EFFE435F0CD89F0A42DFEE435F08A
:10008E008067EF4E7005BD80D780C3EF8BF0A4ACB8
:10009E00F0EE8BF0A42CFCE435F0F8EF8AF0A42CF3
:1000AE00E5F038FCE433CB8DF0A42CFCE5F03BF806
:1000BE00EE8AF0A42CFCE5F038F8E433CF89F0A4F6
:1000CE002CFCE5F038CF3400CE89F0A42FFFE5F0FC
:1000DE003EFEE433C98DF0A42EFEE5F039CD8AF054
:1000EE00A42FFFE5F03EFEE43DFD33D0E0FB5007CC
:1000FE000BBB000F020191EC2CFCEF33FFEE33FE35
:06010E00ED33FD02016962
:1001140075F020800E75F010800575F0087D007E66
:10012400007F003392D530D503120673EC334010B0
:10013400EF33FFEE33FEED33FDEC33FCD5F0ED226F
:0E014400E5F0247EA2D513CC92E7CDCEFF22AB
:1006B700E54D2439F8E6054D2278363007027839BA
:1006C700E475F0011206810205CC2000EB7F2ED2E3
:1006D700008018EF540F2490D43440D4FF30040B1B
:1006E700EF24BFB41A0050032461FFE54E600215E2
:1006F7004E0551E5517002055030070D7836E47507
:10070700F001120681EF020612020CEB7403D20706
:100717008003E4C207F54D8B368A378938E4F54EF6
:10072700F550F551E54E60077F201206F280F5750A
:100737004FFFC201C200C202C203C205C206C208FD
:100747001206C0FF700D3007057F00120703AF5177
:10075700AE5022B4255FC2D5C2041206C0FF24D012
:10076700B40A00501A75F00A784E30D50508B6FF5E
:100777000106C6A426F620D5047002D20380D92428
:10078700CFB41A00EF5004C2E5D2040209F0D20137
:1007970080C6D20080C0D20280BCD2D580BAD20532
:1007A70080B47F201206F22002077401B54E004084
:1007B700F11206B7FF1206F202072BD208D2068003
:1007C700951206B7FB1206B7FA1206B7F94A4B702D
:1007D7000679E77A0A7BFF20022EE54E602A7E0023
:1007E7008E827583001205E560060EEE654F70F088
:1007F700C2D5EBC0E0EAC0E0E9C0E0EE120A50D093
:10080700E0F9D0E0FAD0E0FB1205CCFF60AAEBC01C
:10081700E0EAC0E0E9C0E01206F2D0E02401F9D036
:10082700E03400FAD0E0FBE54F0460DCD54FD98017
:1008370087D20280A2120A3360F7E54F70010412D3
:10084700019CA94F600DE54F600914F54F120ADAB4
:10085700EF60F3EA30E702F404C3995077EAF4252E
:100867004F0430E701E404F54F800D120A3360C1ED
:10087700EA054F254F12019CEA784CF630E701E470
:10088700254F04D54F0420050114120A50E4C0E097
:10089700120ADA784CE6601320E70714F61206DA34
:1008A700802204F6D0E014C0E07F001206DAE54F9C
:1008B70060071206D1154F800B3005031206D1D001
:1008C700E002072BD0E00480C5120A3360A0E54F91
:1008D7000412019C784CEAF6E54F200502600104FA
:0508E7002404120A5078
:1008EC0074FF04C0E0120ADA1206DAE54F200502A2
:1008FC0060031206D1D0E0B54FE87F451206E478CC
:10090C004CE67F2B30E7047F2DF404C0E01206F296
:10091C00D0E075F00A84C0F01206DBD0E01206DBE2
:10092C0002072B791080027908C206C2088008D20F
:10093C00D5790A8004790AC2D5E54F047002F54FC7
:10094C00E4FAFDFEFF1206B7FC7B08200113120629
:10095C00B7FD7B1030000A1206B7FE1206B7FF7BFC
:10096C0020EC3382D592D55013C3E43000069FFFA0
:10097C00E49EFEE42001039DFDE49CFCE4CBF8C264
:10098C0001EC700CCFCECDCCE824F8F870F38017C6
:10099C00C3EF33FFEE33FEED33FDEC33FCEB33FBF7
:1009AC00994002FB0FD8E9EB300105F8D0E0C448C0
:1009BC00B201C0E00AEC4D4E4F78207B0070C2EAC9
:1009CC00B54F0040BCC0E0120A52D0F0D0E020017C
:1009DC0004C4C0E0C4B201C0F01206DBD0F0D5F004
:1009EC00EB02072B12069107C853092F5807994C95
:1009FC0007954209334F093B44093B4907AE43096C
:100A0C00415508724608D045083C470B0750079DD6
:100A1C002D07A12E07C42B07A52307C2200AF02AF5
:100A2C00075D48000007BCE54FB4FF03754F061285
:100A3C0006B7FC1206B7FD1206B7FE1206B7FF7812
:100A4C00450201CB790AA2D5200314300509B9104F
:100A5C00020404B9080104A2D520060250010420A6
:100A6C0002689202B54E005034C0E07F203003196A
:100A7C007F30A20272067205500F120AA9C202C27E
:100A8C0006C205C2087F30800F300503E9C0E012B2
:100A9C0006F2300503D0E0F9D0E0B54ECC300517A6
:100AAC007F30B9100C1206F27F583004077F788023
:100ABC0003B908031206F23002057F2D0206F27FFD
:100ACC00202008F87F2B2006F322920280CF7F0093
:100ADC00B4070050052445F8E6FF22286E756C6CAF
:100AEC002900D2011206B73001F8C201784E30D578
:100AFC000108F602075D2D504349581206B724032E
:100B0C00B405004001E4900B02931206E3743A1210
:0A0B1C0006E3D203754E0402092F10
:10015200E9D2E7C933E833F892D5EDD2E7CD33ECF3
:0701620033FC5002B2D5226C
:10016900EC30E7100FBF000C0EBE00080DBD0004F7
:100179000BEB6014A2D5EB13FCED92E7FD2274FFA3
:10018900FCFDFEFF22E480F8A2D574FF13FC7D80FC
:03019900E480EF10
:10019C00F920E72824F950037907E4F42402FB182A
:1001AC00DBFDE624FB5014E9600DE4F618E604F6DA
:0F01BC00B40A08E4F6D9F57401F60A22C2D52276
:1001CB00ED33EC3392D5FA602AB4FF33EDC2E77B03
:1001DB00FF60067A0179F0E4227A0179F920D504DF
:1001EB007A0179F4224E614E002B494E46002D497F
:1001FB004E4600E47A08F608DAFC7B00740722E826
:10020B00C0E0ECC0E0EDC0E0EEC0E0EFC0E0EA75AE
:10021B00F010A4CAABF075F04DA42BFBE435F0FC49
:10022B00EA2410FAEB34C5FBEC34D9FCEDC2E7FF42
:10023B0075F056A4F42411C5F0F434C58FF0A42A3C
:10024B00E5F03BE43CF620E714120496D0E0FFD037
:10025B00E0FED0E0FDD0E0FC1203C98014F40412E0
:10026B000496D0E0FFD0E0FED0E0FDD0E0FC120021
:10027B000ED0E0F8E6FAEDD2E7CD33EC332482FB77
:10028B00E4C3CF33CFCE33CECD33CD33DBF37B07CC
:10029B0075F00A846004F6081B0AE5F0F6088FF087
:1002AB00740AA4FFACF08EF0740AA42CFEACF050D0
:1002BB00010C8DF0740AA42CFDE435F0F608DBDE9E
:0302CB0074072293
:1002CE00020187E86480F8E933E83360110460F0D6
:1002DE00ED33EC337009E8FCE9FDEAFEEBFF220496
:1002EE0060DED3EB9FEA9EE99DE8C2E78CF0C2F791
:1002FE0095F0400CE8CCF8E9CDF9EACEFAEBCFFB5D
:10030E0012015285D0F05804700320D5B3E8047062
:10031E00075002B2D502019192D5EC0460F7E4CCFD
:10032E00C0E0C398F8603B94186008400DD0E0FB25
:10033E00020169E4FBFAC9FC8028E830E406E4C94E
:10034E00FBE4CAFCE830E305E4C9CACBFCE8540779
:10035E006010F8C3E913F9EA13FAEB13FBEC13FC84
:10036E00D8F130F52FC3E49CFCEF9BFFEE9AFEED27
:10037E0099FDD0E0FBEF4E4D4C701222DB030201D3
:10038E008EEC2CFCEF33FFEE33FEED33FDED30E75C
:10039E00EB020169EF2BFFEE3AFEED39FDD0E0FBEB
:1003AE0050130BBB0003020191ED13FDEE13FEEF94
:0803BE0013FFEC13FC020169BE
:1003C600020191EC5D046005E8590470030201879F
:1003D600120152580460F6EC4860F2EC7004FDFE1F
:1003E600FF22C860DB2481C85009C398600250060A
:1003F60002018E9850CAF582E9294B4A7005AB82F4
:1004060002017D75F0007C1A7880C3EF9BEE9AEDB1
:1004160099400DC3EF9BFFEE9AFEED99FDE842F081
:10042600DC23ACF0D0E0FFD0E0FED0E0FDAB8220D4
:10043600E7101BEB60BAEC2CFCEF33FFEE33FEED5E
:1004460033FD020169E803F830E705C0F075F000F6
:10045600EF2FFFEE33FEED33FD40B830E7C280AA42
:100466003F8000004120000042C80000447A00009E
:10047600461C400047C35000497424004B18968020
:100486004CBEBC205A0E1BCA6753C21C749DC5AE17
:10049600FB60065407601C23231204C4EB54386027
:1004A600091204B01204BF12000EECF8EDF9EEFAD0
:1004B600EFCB22EB1204BF80F1543803241C9004C6
:1004C60066FE93FC0EEE93FD0EEE930ECE93FF2288
:100B3200020C23E493A3F8E493A34003F68001F2AA
:100B420008DFF48029E493A3F85407240CC8C333C4
:100B5200C4540F4420C8834004F456800146F6DF93
:100B6200E4800B0102040810204080900DC6E47E50
:100B7200019360BCA3FF543F30E509541FFEE49388
:100B8200A360010ECF54C025E060A840B8E493A34F
:100B9200FAE493A3F8E493A3C8C582C8CAC583CA7A
:100BA200F0A3C8C582C8CAC583CADFE9DEE780BE32
:010DCA000028
:1004D600E709F608DFFA8046E709F208DFFA803E08
:1004E60088828C83E709F0A3DFFA8032E309F608F5
:1004F600DFFA8078E309F208DFFA807088828C835D
:10050600E309F0A3DFFA806489828A83E0A3F60810
:10051600DFFA805889828A83E0A3F208DFFA804CEA
:1005260080D280FA80C680D4806980F280338010C1
:1005360080A680EA809A80A880DA80E280CA80332A
:1005460089828A83ECFAE493A3C8C582C8CCC583A2
:10055600CCF0A3C8C582C8CCC583CCDFE9DEE78072
:100566000D89828A83E493A3F608DFF9ECFAA9F0F1
:10057600EDFB2289828A83ECFAE0A3C8C582C8CC47
:10058600C583CCF0A3C8C582C8CCC583CCDFEADE60
:10059600E880DB89828A83E493A3F208DFF980CCC2
:1005A60088F0EF60010E4E60C388F0ED2402B404BB
:1005B6000050B9F582EB2402B4040050AF23234562
:0605C6008223900526735C
:1005CC00BB010689828A83E0225002E722BBFE022D
:0905DC00E32289828A83E4932260
:1005E500BB010CE58229F582E5833AF583E02250CB
:1005F50006E92582F8E622BBFE06E92582F8E22215
:0D060500E58229F582E5833AF583E493222E
:10061200BB010689828A83F0225002F722BBFE01C7
:02062200F322C1
:10062400E88FF0A4CC8BF0A42CFCE98EF0A42CFC75
:100634008AF0EDA42CFCEA8EF0A4CDA8F08BF0A4F3
:100644002DCC3825F0FDE98FF0A42CCD35F0FCEB52
:100654008EF0A4FEA9F0EB8FF0A4CFC5F02ECD3917
:0F066400FEE43CFCEAA42DCE35F0FDE43CFC2284
:0E067300C3E49FFFE49EFEE49DFDE49CFC2298
:10068100FAE6FB0808E6F925F0F618E6CA3AF6227A
:10069100D083D082F8E4937012740193700DA3A3F8
:1006A10093F8740193F5828883E47374029368600C
:0606B100EFA3A3A380DF0C
:100CEB00EFB40A07740D120CF6740A309811A89918
:100CFB00B8130CC2983098FDA899C298B811F63069
:070D0B0099FDC299F5992240
:00000001FF
