:03000000020D8866
:0C0D8800787FE4F6D8FD758150020DCF95
:100F030068756D203A253264202074656D703A252A
:100F130032640D0A0020207265616C2020646174C4
:100F230061202020200068756D203A25326420203E
:100F330074656D703A2532640048756D483A253200
:100F430064202048756D4C3A25326400546D704816
:100F53003A2532642020546D704C3A2532640020C7
:100F6300200000000000000000000000000000005E
:020F730000007C
:1010DF00010C0001111E010A19011023011319013E
:1010EF001400010F00011200010B00010D00010E91
:0510FF000002080000E2
:100B8D00E4F52378247C00FD7BFF7A0F7965FE7FE9
:100B9D00101205F5C2AF12117512122BC2977D05F9
:100BAD007C00E4FF1211D612118ED2AFE50D640157
:100BBD00702EC2AFF53775380075390FFB7A007995
:100BCD0014120E8F8F22D2AF7BFF7A0F79037537F8
:100BDD0000851438753900850F3A120780E4F50D3C
:100BED00E50E640170C6E51270487537FF75380F54
:100BFD00753918FB7A00792412077A7B007A00790F
:100C0D0024E4FDFF12110B7537FF75380F75392967
:100C1D00753A0085143B753C00850F3D7B007A00CD
:100C2D00792412077A7B007A0079247D01E4FF0292
:100C3D000CDFE51264016003020CE205237537FF3A
:100C4D0075380F75393CF53A85113BF53C850A3DF4
:100C5D00FB7A00792412077A7B007A007924E4FD6F
:100C6D00FF12110B7537FF75380F75394F753A0037
:100C7D0085103B753C0085133D7B007A007924126D
:100C8D00077A7B007A0079247D01E4FF12110BE5D0
:100C9D002354017040E50B14601614601F14602876
:100CAD00240370317BFF7A0F7962E4FD7F0580228A
:100CBD007BFF7A0F7962E4FD7F0E80167BFF7A0F42
:100CCD0079627D017F05800A7BFF7A0F79627D0154
:0B0CDD007F0E12110BE4F50E020BB9A4
:100CE800EFFD7C006401702EE51264016003020DC3
:100CF80087E50BFB7A007003051122EB64014A704B
:100D080003050A22EB64024A7003051022EB640310
:100D18004A706C051322ED64024C702BE5126401D5
:100D2800705DE50BFD7C007003151122ED64014C2C
:100D38007003150A22ED64024C7003151022ED644D
:100D4800034C703B151322EFFD7C0064037014E51F
:100D580012FB7A00700475120122EB64014A701FBD
:100D6800F51222ED64044C7016E51264017010054A
:100D78000BD3E50B9403748094804003E4F50B22B5
:10106F00E50FD395104006D2A3C2A28011E50FC39E
:10107F0095135006C2A3D2A28004C2A3C2A2E51444
:10108F00D395114005D2A1C2A022E514C3950A50F1
:0B109F0005C2A1D2A022C2A1C2A02263
:03000B00020E14CE
:100E1400C0E0C0F0C083C082C0D075D000C000C0A4
:0D0E240001C002C003C004C005C006C00725
:100E3100758A00758CEE0509E509700205087F05C4
:100E4100120F758F0CAE08AF097C007DC8120685A4
:100E5100ED4C7005B297750D01AE08AF097C007DB0
:100E610014120685ED4C7003750E01AF0C120CE8DF
:030E710012106FED
:100E7400D007D006D005D004D003D002D001D000D2
:0B0E8400D0D0D082D083D0F0D0E0327C
:03002300021222A4
:08122200309805859950C2982F
:01122A003291
:0610AA00AB077F017E0090
:1010B000D3EF9400EE940040257DC7EDD3940074E7
:1010C00080948040127C01ECD39400748094804022
:0E10D000031C80F31D80E4EF1F70D51E80D23C
:0110DE0022EF
:101202001210AAC2A7C2A6C2A58B80D2A7C2A722C9
:101212001210AAC2A7D2A6C2A58B80D2A7C2A722A9
:101175007F381212027F0C1212027F061212027FB2
:09118500011212027F8002120225
:10000E00ED7004AA078004EF2440FAEA4480FF0250
:02001E001202CC
:10110B008B348A35893612000EAB34AA35A93612C8
:10111B00061B60130536E5367002053514F9120609
:08112B001BFF12121280E222E8
:06110400011500011600B8
:09122B00D290D291D292D293220A
:100F7500E515FD7C00703C309009309106309203F8
:100F85002093300516E5168FF0A4D39414E5F0648C
:100F95008094804034751501E4F5162090037F0197
:100FA500222091037F02222092037F03222093199E
:100FB5007F0422ED64014C701030900D30910A30A1
:0B0FC5009207309304F515F5167F002D
:010FD00022FE
:020FD1008F345B
:100FD300AE04AF05E41201D17B7C7AF2793078411B
:100FE300120026E4FBFA7940784112012F12020A1B
:100FF300C3E49FFFE49EFEAD347C00ED701453897F
:10100300F0438901AB07EBF58A8E8CC28DD28CD26B
:10101300A922ED64014C701153890F438910EFF538
:091023008B8E8DC28FD28ED2ABF0
:01102C0022A1
:1011D600AB07AE04AF057C037DE8120673AC06AD23
:0611E60007AF03020FD168
:02102D008F171B
:10102F00AE04AF05E41201D17B7C7AF279307841BE
:10103F00120026E4FBFA7940784112012F12020ABE
:10104F00C3E49FFFE49EFEAD177C00ED7006EFF545
:0F105F008A8E8C22ED64014C7005EFF58B8E8D1F
:01106E00225F
:1011EC00AB07AE04AF057C037DE8120673AC06AD0D
:0611FC0007AF0302102DF5
:10118E0053877F75985053890F438920758BFD7552
:09119E008DFDC2ABD28ED2AC2251
:1011A700ED601412061BF5993099FDC29974012957
:0811B700F9E43AFA1D80E92277
:080003008F993099FDC299228A
:10115700D3EF9400EE940040147D6E7C00ED1D707B
:0D116700011CED4C70F7EF1F70E61E80E3D9
:011174002258
:04123A007F0BDFFE49
:01123E00228D
:05123400007F0FDFFE4A
:011239002292
:04123F007F22DFFE2D
:011243002288
:1011BF00D2967F017E00121157C2967F1E7E0012BB
:0711CF001157D29602123401
:10113300E4FEFDEDC394087480948050143096FD52
:10114300121234EE25E0FE3096010E2096FD0D803E
:03115300E2AF0602
:011156002276
:060E8F008B348A35893620
:100E95001211BF2096653096FD12123F1211338F45
:100EA5003A121133A907121133AC07121133AB07EC
:100EB5001211338F3FE9FFE53A2FFFE433FEEC755E
:100EC50083002FFFE5833EFEEB2FFFE5833EFEE526
:100ED5003FB5070EE583B50609853A3B893C8C3D50
:100EE5008B3EAB34AA35A936E53B120661AB37AA72
:0D0EF50038A939E53D1206617F00227F011A
:010F020022CC
:10002600EC4D6011E8497017ED33EC3304600DE4D4
:10003600FCFFFEFD22E933E8330470F80202761273
:10004600024158046009E4CC248150062850090274
:10005600028028400302027DC0E0EB4A7044B9806A
:1000660006D0E0FB02026CEF4E701CBD8008EBFF71
:10007600EAFEE9FD80EBE98DF0A4FEE5F002010F52
:10008600E9CDF9EAFEEBFFEF89F0A4FCE5F0CE89B5
:10009600F0A42EFFE435F0CD89F0A42DFEE435F072
:1000A6008067EF4E7005BD80D780C3EF8BF0A4ACA0
:1000B600F0EE8BF0A42CFCE435F0F8EF8AF0A42CDB
:1000C600E5F038FCE433CB8DF0A42CFCE5F03BF8EE
:1000D600EE8AF0A42CFCE5F038F8E433CF89F0A4DE
:1000E6002CFCE5F038CF3400CE89F0A42FFFE5F0E4
:1000F6003EFEE433C98DF0A42EFEE5F039CD8AF03C
:10010600A42FFFE5F03EFEE43DFD33D0E0FB5007B3
:100116000BBB000F020280EC2CFCEF33FFEE33FE2C
:06012600ED33FD0202585A
:10012C00020280EC5D046005E8590470030202765B
:10013C00120241580460F6EC4860F2EC7004FDFECB
:10014C00FF22C860DB2481C85009C39860025006A6
:10015C0002027D9850CAF582E9294B4A7005AB82A0
:10016C0002026C75F0007C1A7880C3EF9BEE9AED5E
:10017C0099400DC3EF9BFFEE9AFEED99FDE842F01E
:10018C00DC23ACF0D0E0FFD0E0FED0E0FDAB822071
:10019C00E7101BEB60BAEC2CFCEF33FFEE33FEEDFB
:1001AC0033FD020258E803F830E705C0F075F000A3
:1001BC00EF2FFFEE33FEED33FD40B830E7C280AADF
:1001CC0075F020800E75F010800575F0087D007EAE
:1001DC00007F003392D530D5031206DAEC33401091
:1001EC00EF33FFEE33FEED33FDEC33FCD5F0ED22B7
:0E01FC00E5F0247EA2D513CC92E7CDCEFF22F3
:10020A00EDD2E7CD33EC3392D524814006E4FFFEEC
:10021A00FDFC22FCE4CFCECDCC24E0501174FF804B
:10022A00EDC3CC13CCCD13CDCE13CECF13CF0470E8
:07023A00F030D5DE0206DA08
:10071E00E54B2437F8E6054B22783430070278375C
:10072E00E475F0011206E802061B2000EB7F2ED2C4
:10073E00008018EF540F2490D43440D4FF30040BB3
:10074E00EF24BFB41A0050032461FFE54C6002157C
:10075E004C054FE54F7002054E30070D7834E475A9
:10076E00F0011206E8EF0206610200037403D207DD
:10077E008003E4C207F54B8B348A358936E4F54C99
:10078E00F54EF54FE54C60077F2012075980F57541
:10079E004DFFC201C200C202C203C205C206C20898
:1007AE00120727FF700D3007057F0012076AAF4F43
:1007BE00AE4E22B4255FC2D5C204120727FF24D045
:1007CE00B40A00501A75F00A784C30D50508B6FFF9
:1007DE000106C6A426F620D5047002D20380D924C1
:1007EE00CFB41A00EF5004C2E5D204020A57D20168
:1007FE0080C6D20080C0D20280BCD2D580BAD205CB
:10080E0080B47F201207592002077401B54C0040B6
:10081E00F112071EFF120759020792D208D2068064
:10082E009512071EFB12071EFA12071EF94A4B708D
:10083E0006794E7A0B7BFF20022EE54C602A7E0055
:10084E008E8275830012063460060EEE654D70F0D2
:10085E00C2D5EBC0E0EAC0E0E9C0E0EE120AB7D0C4
:10086E00E0F9D0E0FAD0E0FB12061BFF60AAEBC065
:10087E00E0EAC0E0E9C0E0120759D0E02401F9D067
:10088E00E03400FAD0E0FBE54D0460DCD54DD980B4
:10089E0087D20280A2120A9A60F7E54D7001041207
:1008AE00028BA94D600DE54D600914F54D120B41FB
:1008BE00EF60F3EA30E702F404C3995077EAF425C7
:1008CE004D0430E701E404F54D800D120A9A60C123
:1008DE00EA054D254D12028BEA784AF630E701E41F
:1008EE00254D04D54D0420050114120AB7E4C0E0CD
:1008FE00120B41784AE6601320E70714F6120741FF
:10090E00802204F6D0E014C0E07F00120741E54DCE
:10091E006007120738154D800B300503120738D0CB
:10092E00E0020792D0E00480C5120A9A60A0E54D5D
:10093E000412028B784AEAF6E54D200502600104A6
:05094E002404120AB7A9
:1009530074FF04C0E0120B41120741E54D2005026C
:100963006003120738D0E0B54DE87F4512074B7896
:100973004AE67F2B30E7047F2DF404C0E0120759C9
:10098300D0E075F00A84C0F0120742D0E0120742AB
:10099300020792791080027908C206C2088008D241
:1009A300D5790A8004790AC2D5E54D047002F54D64
:1009B300E4FAFDFEFF12071EFC7B08200113120759
:1009C3001EFD7B1030000A12071EFE12071EFF7B5E
:1009D30020EC3382D592D55013C3E43000069FFF39
:1009E300E49EFEE42001039DFDE49CFCE4CBF8C2FD
:1009F30001EC700CCFCECDCCE824F8F870F380175F
:100A0300C3EF33FFEE33FEED33FDEC33FCEB33FB8F
:100A1300994002FB0FD8E9EB300105F8D0E0C44858
:100A2300B201C0E00AEC4D4E4F78207B0070C2EA61
:100A3300B54D0040BCC0E0120AB9D0F0D0E02001AF
:100A430004C4C0E0C4B201C0F0120742D0F0D5F034
:100A5300EB0207921206F8082F5309965808004C28
:100A630007FC42099A4F09A24409A2490815430900
:100A7300A85508D94609374508A3470B6E50080403
:100A83002D08082E082B2B080C230829200B572A86
:100A930007C44800000823E54DB4FF03754D061253
:100AA300071EFC12071EFD12071EFE12071EFF780B
:100AB300430202BA790AA2D5200314300509B910FA
:100AC300020404B9080104A2D5200602500104203F
:100AD30002689202B54C005034C0E07F2030031905
:100AE3007F30A20272067205500F120B10C202C2AF
:100AF30006C205C2087F30800F300503E9C0E0124B
:100B03000759300503D0E0F9D0E0B54CCC300517D8
:100B13007F30B9100C1207597F583004077F788053
:100B230003B908031207593002057F2D0207597FC5
:100B3300202008F87F2B2006F322920280CF7F002B
:100B4300B4070050052443F8E6FF22286E756C6C49
:100B53002900D20112071E3001F8C201784C30D5AA
:100B63000108F60207C42D5043495812071E2403F7
:100B7300B405004001E4900B699312074A743A12DA
:0A0B8300074AD203754C04020996DC
:10024100E9D2E7C933E833F892D5EDD2E7CD33EC03
:0702510033FC5002B2D5227C
:10025800EC30E7100FBF000C0EBE00080DBD000407
:100268000BEB6014A2D5EB13FCED92E7FD2274FFB3
:10027800FCFDFEFF22E480F8A2D574FF13FC7D800C
:03028800E480EF20
:10028B00F920E72824F950037907E4F42402FB183A
:10029B00DBFDE624FB5014E9600DE4F618E604F6EA
:0F02AB00B40A08E4F6D9F57401F60A22C2D52286
:1002BA00ED33EC3392D5FA602AB4FF33EDC2E77B13
:1002CA00FF60067A0279DFE4227A0279E820D5040F
:1002DA007A0279E3224E614E002B494E46002D499F
:1002EA004E4600E47A08F608DAFC7B00740722E836
:1002FA00C0E0ECC0E0EDC0E0EEC0E0EFC0E0EA75BF
:10030A00F010A4CAABF075F04DA42BFBE435F0FC59
:10031A00EA2410FAEB34C5FBEC34D9FCEDC2E7FF52
:10032A0075F056A4F42411C5F0F434C58FF0A42A4C
:10033A00E5F03BE43CF620E7141204E5D0E0FFD0F8
:10034A00E0FED0E0FDD0E0FC12012F8014F404128C
:10035A0004E5D0E0FFD0E0FED0E0FDD0E0FC1200E2
:10036A0026D0E0F8E6FAEDD2E7CD33EC332482FB6F
:10037A00E4C3CF33CFCE33CECD33CD33DBF37B07DC
:10038A0075F00A846004F6081B0AE5F0F6088FF097
:10039A00740AA4FFACF08EF0740AA42CFEACF050E0
:1003AA00010C8DF0740AA42CFDE435F0F608DBDEAE
:0303BA00740722A3
:1003BD00020276E86480F8E933E83360110460F0F6
:1003CD00ED33EC337009E8FCE9FDEAFEEBFF2204A6
:1003DD0060DED3EB9FEA9EE99DE8C2E78CF0C2F7A1
:1003ED0095F0400CE8CCF8E9CDF9EACEFAEBCFFB6D
:1003FD0012024185D0F05804700320D5B3E8047083
:10040D00075002B2D502028092D5EC0460F7E4CC1D
:10041D00C0E0C398F8603B94186008400DD0E0FB35
:10042D00020258E4FBFAC9FC8028E830E406E4C96E
:10043D00FBE4CAFCE830E305E4C9CACBFCE8540789
:10044D006010F8C3E913F9EA13FAEB13FBEC13FC94
:10045D00D8F130F52FC3E49CFCEF9BFFEE9AFEED37
:10046D0099FDD0E0FBEF4E4D4C701222DB030202E2
:10047D007DEC2CFCEF33FFEE33FEED33FDED30E77D
:10048D00EB020258EF2BFFEE3AFEED39FDD0E0FB0B
:10049D0050130BBB0003020280ED13FDEE13FEEFB4
:0804AD0013FFEC13FC020258DE
:1004B5003F8000004120000042C80000447A00004F
:1004C500461C400047C35000497424004B189680D1
:1004D5004CBEBC205A0E1BCA6753C21C749DC5AEC8
:1004E500FB60065407601C2323120513EB54386088
:1004F500091204FF12050E120026ECF8EDF9EEFACA
:10050500EFCB22EB12050E80F1543803241C900426
:10051500B5FE93FC0EEE93FD0EEE930ECE93FF22E9
:100D9400020B8DE493A3F8E493A34003F68001F2DD
:100DA40008DFF48029E493A3F85407240CC8C33360
:100DB400C4540F4420C8834004F456800146F6DF2F
:100DC400E4800B01020408102040809010DFE47ED0
:100DD400019360BCA3FF543F30E509541FFEE49324
:100DE400A360010ECF54C025E060A840B8E493A3EB
:100DF400FAE493A3F8E493A3C8C582C8CAC583CA16
:100E0400F0A3C8C582C8CAC583CADFE9DEE780BECD
:01110A0000E4
:10052500E709F608DFFA8046E709F208DFFA803EB8
:1005350088828C83E709F0A3DFFA8032E309F608A5
:10054500DFFA8078E309F208DFFA807088828C830D
:10055500E309F0A3DFFA806489828A83E0A3F608C1
:10056500DFFA805889828A83E0A3F208DFFA804C9B
:1005750080D280FA80C680D4806980F28033801072
:1005850080A680EA809A80A880DA80E280CA8033DB
:1005950089828A83ECFAE493A3C8C582C8CCC58353
:1005A500CCF0A3C8C582C8CCC583CCDFE9DEE78023
:1005B5000D89828A83E493A3F608DFF9ECFAA9F0A2
:1005C500EDFB2289828A83ECFAE0A3C8C582C8CCF8
:1005D500C583CCF0A3C8C582C8CCC583CCDFEADE11
:1005E500E880DB89828A83E493A3F208DFF980CC73
:1005F50088F0EF60010E4E60C388F0ED2402B4046C
:100605000050B9F582EB2402B4040050AF23234512
:06061500822390057573BD
:10061B00BB010689828A83E0225002E722BBFE02DD
:09062B00E32289828A83E4932210
:10063400BB010CE58229F582E5833AF583E022507B
:1006440006E92582F8E622BBFE06E92582F8E222C5
:0D065400E58229F582E5833AF583E49322DF
:10066100BB010689828A83F0225002F722BBFE0178
:02067100F32272
:10067300EF8DF0A4A8F0CF8CF0A428CE8DF0A42E9B
:02068300FE2255
:10068500BC000BBE0029EF8DF084FFADF022E4CC59
:10069500F875F008EF2FFFEE33FEEC33FCEE9DEC22
:1006A500984005FCEE9DFE0FD5F0E9E4CEFD22ED68
:1006B500F8F5F0EE8420D21CFEADF075F008EF2FB2
:1006C500FFED33FD4007985006D5F0F222C398FDA3
:0506D5000FD5F0EA2240
:0E06DA00C3E49FFFE49EFEE49DFDE49CFC2231
:1006E800FAE6FB0808E6F925F0F618E6CA3AF62213
:1006F800D083D082F8E4937012740193700DA3A391
:1007080093F8740193F5828883E4737402936860A4
:06071800EFA3A3A380DFA4
:00000001FF
