:030000000209A84A
:0C09A800787FE4F6D8FD7581650209EF48
:100A3400636F6D62696E6174696F6E206C6F636B56
:100A4400002D2D2D2D20206C6F636B20202D2D2D3E
:100A54002D00707764203A202020202020202020A0
:100A64002020002D2D2D2D20206F70656E20202D2F
:100A74002D2D2D006E6577203A2020202020202067
:100A840020202020002D2D2D2D2073756363657388
:060A9400732D2D2D2D0035
:100A9A00114A0000000000000000000000000000F1
:100AAA00000000075C36363636363600103A010248
:100ABA00030A0405060A0708090A0A000A0A015B6A
:100ACA0000C109C10BC10A0122000723000000006E
:100ADA00000000012A00012B00072C000000000082
:0B0AEA000000073300000000000000C7
:100B6300120C78120C91D2A4750DFF750E0A750F35
:100B7300347B007A00794A12006A7B007A00794A52
:100B8300E4FDFF120C29750DFF750E0A750F457BE9
:100B9300007A00794A12006A7B007A00794A7D0163
:0E0BA300E4FF120C29E55B60FC120AFF80F7EC
:02082E008F0930
:10083000E5227013750DFF750E0A750F56FB7A00D1
:10084000794A12006A8059E509640F7028D3E522BD
:10085000940174809480401D1522744F2522F876EF
:100860002074222522F8E4F6FB7A00794A7D01FF04
:10087000120C29803AC3E522940774809480502F8B
:1008800074392509F8E62430FF744F2522F8A607AD
:1008900074392509F8E62430FF74222522F8A607CA
:1008A0007B007A00794A7D01E4FF120C290522D3EE
:1008B000E5229406748094804060E5096410705AC3
:1008C000C209F522785C7C00FDFB7A0079231205D1
:1008D00001EF3395E04F7021750DFF750E0A750F0E
:1008E00067FB7A00794A12006A7B007A00794A7DB8
:1008F00001E4FF120C29C2A422750DFF750E0A75C2
:100900000F457B007A00794A12006A7B007A0079F1
:0A0910004A7D01E4FF120C29D2A475
:01091A0022BA
:02067C008F09E4
:10067E00E52B6003020779E52A7013750DFF750EE1
:10068E000A750F56FB7A00794A12006A8059E509FD
:10069E00640F7028D3E52A940174809480401D1550
:1006AE002A744F252AF87620742B252AF8E4F6FBB7
:1006BE007A00794A7D01FF120C29803AC3E52A940B
:1006CE000774809480502F74392509F8E62430FF82
:1006DE00744F252AF8A60774392509F8E62430FF49
:1006EE00742B252AF8A6077B007A00794A7D01E44F
:1006FE00FF120C29052AD3E52A94067480948050A3
:10070E000302082DE5096410600302082DF52A780E
:10071E005C7C00FDFB7A00792C120501EF3395E02D
:10072E004F7024750DFF750E0A750F78FB7A0079E0
:10073E004A12006A7B007A00794A7D01E4FF120CAE
:10074E0029052A752B0122C20A750DFF750E0A7531
:10075E000F457B007A00794A12006A7B007A007995
:10076E004A7D01E4FF120C29D2A422E52B6401601C
:10077E000302082DE509640F7028D3E52A9401744D
:10078E00809480401D152A744F252AF876207432E5
:10079E00252AF8E4F6FB7A00794A7D01FF120C292E
:1007AE00803AC3E52A940774809480502F743925BB
:1007BE0009F8E62430FF744F252AF8A60774392568
:1007CE0009F8E62430FF7432252AF8A6077B007A52
:1007DE0000794A7D01E4FF120C29052AD3E52A94FB
:1007EE0006748094804038E50964107032C20AF5B0
:1007FE002A750DFF750E0A750F89FB7A00794A125C
:10080E00006A7B007A00794A7D01E4FF120C29E42C
:0F081E00F52B785C7C00FDFB7A0079331205EA3C
:01082D0022A8
:100AFF00E4F508855B08AF08FEEF64047007200972
:100B0F0004D2098018EF64084E7007200B04D20B33
:100B1F00800BEF640C4E7005200A02D20A300905D3
:100B2F00AF0812082E300B23750DFF750E0A750FC7
:100B3F00457B007A00794A12006A7B007A00794A75
:100B4F007D01E4FF120C29C20BD2A4300A05AF08B5
:030B5F0012067CFF
:010B62002270
:100C9100758901758A78758CECC28DD28CD2A9D2F6
:020CA100AF2280
:03000B00020BB134
:100BB100C0E0C0F0C083C082C0D075D000C000C00A
:100BC10001C002C003C004C005C006C007758A7811
:100BD100758CEC12091B8F5BD007D006D005D004B1
:100BE100D003D002D001D000D0D0D082D083D0F0B9
:030BF100D0E0321F
:060BF400AB077F017E004B
:100BFA00D3EF9400EE940040257DC7EDD3940074A2
:100C0A0080948040127C01ECD394007480948040DC
:0E0C1A00031C80F31D80E4EF1F70D51E80D2F6
:010C280022A9
:100CB500120BF4C2A7C2A5C2A68B80D2A7C2A722D7
:100CC500120BF4C2A7D2A5C2A68B80D2A7C2A722B7
:100C78007F38120CB57F0C120CB57F06120CB57FAD
:090C880001120CB57F80020CB5CD
:100CA300ED7004AA078004EF2440FAEA4480FF02AF
:020CB3000CB57E
:100C29008B0A8A0B890C120CA3AB0AAA0BA90C120A
:100C3900036A6013050CE50C7002050B14F9120325
:080C49006AFF120CC580E222D3
:090AF500016400016500016300C9
:10091B0075900FAF90EF640F606FAF65EF706A0566
:10092B0063AD90ED640F6072D3E56394147480949F
:10093B00804067EF7064F56375650175900FAF903C
:10094B00EF24F5601024FE6011146013240770125D
:10095B00756401800D7564028008756403800375EE
:10096B0064047590F0AF90EF2450600C24E0600CA1
:10097B0024F0600C2470800E7404800674088002CE
:10098B00740C2564F564AF6422AF90EF640F700AAA
:0C099B00E56564017004F565F5647F00FB
:0109A700222D
:1009B400020B63E493A3F8E493A34003F68001F2EB
:1009C40008DFF48029E493A3F85407240CC8C33344
:1009D400C4540F4420C8834004F456800146F6DF13
:1009E400E4800B0102040810204080900A9AE47EFF
:1009F400019360BCA3FF543F30E509541FFEE49308
:100A0400A360010ECF54C025E060A840B8E493A3CE
:100A1400FAE493A3F8E493A3C8C582C8CAC583CAF9
:100A2400F0A3C8C582C8CAC583CADFE9DEE780BEB1
:010AFE0000F7
:10036A00BB010689828A83E0225002E722BBFE0291
:09037A00E32289828A83E49322C4
:10000E00E519240DF8E6051922780A300702780D55
:10001E00E475F00112064602036A2000EB7F2ED231
:10002E00008018EF540F2490D43440D4FF30040BCA
:10003E00EF24BFB41A0050032461FFE51A600215C5
:10004E001A051DE51D7002051C30070D780AE475B2
:10005E00F001120646EF020634020C517403D20769
:10006E008003E4C207F5198B0A8A0B890CE4F51A92
:10007E00F51CF51DE51A60077F2012004980F57505
:10008E001BFFC201C200C202C203C205C206C208E1
:10009E00120017FF700D3007057F0012005AAF1DBA
:1000AE00AE1C22B4255FC2D5C204120017FF24D0A5
:1000BE00B40A00501A75F00A781A30D50508B6FF42
:1000CE000106C6A426F620D5047002D20380D924D8
:1000DE00CFB41A00EF5004C2E5D20402025AD20184
:1000EE0080C6D20080C0D20280BCD2D580BAD205E2
:1000FE0080B47F201200492002077401B51A004017
:10010E00F112000EFF120049020082D208D20680C0
:10011E009512000EFB12000EFA12000EF94A4B70E9
:10012E0006792B7A037BFF20022EE51A602A7E00C9
:10013E008E8275830012060760060EEE651B70F048
:10014E00C2D5EBC0E0EAC0E0E9C0E0EE1202A1D0F9
:10015E00E0F9D0E0FAD0E0FB12036AFF60AAEBC030
:10016E00E0EAC0E0E9C0E0120049D0E02401F9D095
:10017E00E03400FAD0E0FBE51B0460DCD51BD9802F
:10018E00877BFF7A02799DD202809C79108002795A
:10019E0008C206C2088008D2D5790A8004790AC23C
:1001AE00D5E51B047002F51BE4FAFDFEFF12000EEE
:1001BE00FC7B0820011312000EFD7B1030000A128A
:1001CE00000EFE12000EFF7B20EC3382D592D5502E
:1001DE0013C3E43000069FFFE49EFEE42001039D5E
:1001EE00FDE49CFCE4CBF8C201EC700CCFCECDCC80
:1001FE00E824F8F870F38017C3EF33FFEE33FEED0B
:10020E0033FDEC33FCEB33FB994002FB0FD8E9EBEB
:10021E00300105F8D0E0C448B201C0E00AEC4D4E02
:10022E004F78207B0070C2EAB51B0040BCC0E012C4
:10023E0002A3D0F0D0E0200104C4C0E0C4B201C0DB
:10024E00F0120032D0F0D5F0EB0200821206560109
:10025E001F5301995800F04C00EC42019D4F01A52F
:0F026E004401A54901054301AB55018F46018F9E
:10027D0045018F47034B5000F42D00F82E011B2B29
:10028D0000FC2301192003342A00B4480000011397
:10029D003F3F3F00790AA2D5200314300509B9105C
:1002AD00020404B9080104A2D5200602500104205D
:1002BD0002689202B51A005034C0E07F2030031955
:1002CD007F30A20272067205500F1202FAC202C2EC
:1002DD0006C205C2087F30800F300503E9C0E01269
:1002ED000049300503D0E0F9D0E0B51ACC30051740
:1002FD007F30B9100C1200497F583004077F788089
:10030D0003B908031200493002057F2D0200497F11
:10031D00202008F87F2B2006F322920280CF286E32
:10032D00756C6C2900D20112000E3001F8C20178F3
:10033D001A30D50108F60200B42D50434958120069
:10034D000E2403B405004001E49003469312003AD5
:0D035D00743A12003AD203751A0402019995
:10038300E3F5F009E208B5F06D606B80F3E3F5F097
:1003930009E608B5F060605E80F387F009E608B50A
:1003A300F054605280F487F009E208B5F0486046E3
:1003B30080F488828C8387F009E0A3B5F038603637
:1003C30080F488828C8387F009E493A3B5F02760D7
:1003D3002580F388828C83E3F5F009E0A3B5F0165A
:1003E300601480F388828C83E3F5F009E493A3B56A
:1003F300F004600280F20204AE808580E7808E8084
:10040300D2803C8015806C807E809B80B5808B8001
:10041300A1804F8070803A0204BA89828A83ECFA01
:10042300E493F5F0A3C8C582C8CCC583CCE493A3F9
:10043300C8C582C8CCC583CCB5F070606E80E18935
:10044300828A83E493F5F0A3E208B5F05E605C80F2
:10045300F289828A83E0F5F0A3E608B5F04D604B9C
:1004630080F389828A83E0F5F0A3E208B5F03C606B
:100473003A80F389828A83E493F5F0A3E608B5F022
:100483002A602880F2805389828A83ECFAE493F508
:10049300F0A3C8C582C8CCC583CCE0A3C8C582C8B5
:1004A300CCC583CCB5F004600280E27FFFB5F002D7
:1004B3000F2240027F012289828A83ECFAE0F5F061
:1004C300A3C8C582C8CCC583CCE0A3C8C582C8CCA9
:1004D300C583CCB5F0D560D380E389828A83ECFAF7
:1004E300E0F5F0A3C8C582C8CCC583CCE493A3C808
:1004F300C582C8CCC583CCB5F0B160AF80E288F0CB
:10050300ED2402B4040050A3F582EB2402B40400EA
:0B051300509923234582239003FC73C2
:10051E00E709F60870FA8046E709F20870FA803E9D
:10052E0088828C83E709F0A370FA807EE309F608CF
:10053E0070FA8076E309F20870FA806E88828C83F6
:10054E00E309F0A370FA806289828A83E0A3F60839
:10055E0070FA805689828A83E0A3F20870FA804A84
:10056E0080D280FA80C680D4806580F2803180107F
:10057E0080A680EA809A80A880DA80E280CA8031E4
:10058E0089828A83ECFAE493A3C8C582C8CCC5835A
:10059E00CCF0A3C8C582C8CCC583CC70E9800D89C8
:1005AE00828A83E493A3F60870F9ECFAA9F0EDFBC6
:1005BE002289828A83ECFAE0A3C8C582C8CCC5839F
:1005CE00CCF0A3C8C582C8CCC583CC70EA80DD89C7
:1005DE00828A83E493A3F20870F980CE88F0ED242A
:1005EE0002B4040050C4F582EB2402B4040050BAE5
:0905FE00232345822390056E734E
:10060700BB010CE58229F582E5833AF583E02250A8
:1006170006E92582F8E622BBFE06E92582F8E222F2
:0D062700E58229F582E5833AF583E493220C
:10063400BB010689828A83F0225002F722BBFE01A5
:02064400F3229F
:10064600FAE6FB0808E6F925F0F618E6CA3AF622B5
:10065600D083D082F8E4937012740193700DA3A333
:1006660093F8740193F5828883E473740293686047
:06067600EFA3A3A380DF47
:100C5100EFB40A07740D120C5C740A309811A8994C
:100C6100B8130CC2983098FDA899C298B811F63003
:070C710099FDC299F59922DB
:00000001FF
