:030000000207E311
:0C07E300787FE4F6D8FD75814F02082AEB
:1009310068656C6C6F20776F726C640D0A00202003
:100941007265616C20206461746120200068756D9E
:100951003A002020200074656D703A0048756D489A
:100961003A0020200048756D4C3A00546D70483AA9
:0709710000546D704C3A00C8
:100A3F00014900014A3C01451E014828014C14019F
:0B0A4F004D00014700014B0001460074
:10037100E4F531120A9D12000E120AB6D2AF7BFFCC
:100381007A0979317D0E120ACFC2AF753500753603
:10039100007537477B007A00794D12086F8F30D294
:1003A100AFE54B70597BFF7A09793FFDFF1209F3E5
:1003B1007BFF7A09794E7D01E4FF1209F3E54DFBDC
:1003C1007A007536027537017D017F041207557B6E
:1003D100FF7A0979537D017F061209F37BFF7A09C0
:1003E10079577D017F091209F3E547FB7A007536DC
:1003F100027537017D017F0E1207550204FEE54BA0
:10040100640160030204FE05317BFF7A09795DFD19
:10041100FF1209F3E54AFB7A00753602753701E4EC
:10042100FD7F05120755E5467012E5315401700C48
:100431007BFF7A097963FD7F051209F37BFF7A0956
:100441007963E4FD7F071209F37BFF7A097966E49A
:10045100FD7F091209F3E545FB7A00753602753710
:1004610001E4FD7F0E120755E54664017012E53186
:100471005401700C7BFF7A097963FD7F0E1209F339
:100481007BFF7A09796C7D01E4FF1209F3E548FBF2
:100491007A007536027537017D017F05120755E532
:1004A1004664027013E5315401700D7BFF7A0979BE
:1004B100637D017F051209F37BFF7A0979637D0171
:1004C1007F071209F37BFF7A0979727D017F091297
:1004D10009F3E54CFB7A007536027537017D017F22
:1004E1000E120755E54664037013E5315401700D92
:1004F1007BFF7A0979637D017F0E1209F37FC87E44
:0705010000120A6102038AE7
:1009B800E547D395484006C2A0D2A18011E547C3B8
:1009C800954C5006D2A0C2A18004D2A0D2A1E54D78
:1009D800D3954A4005C2A2D2A322E54DC3954550FE
:0B09E80005D2A2C2A322D2A2D2A322F9
:03000B0002066783
:10066700C0E0C0F0C083C082C0D075D000C000C059
:1006770001C002C003C004C005C006C007758A00D8
:10068700758CEE1208E38F497E00EF64017033E545
:100697004B64016003020737AD46FCED7005054A60
:1006A700020737ED64014C70050545020737ED6415
:1006B700024C700405488078ED64034C7072054C59
:1006C700806EEF64024E702EE54B64017062AF4698
:1006D700FEEF7004154A8058EF64014E700415450B
:1006E700804EEF64024E700415488044EF64034E59
:1006F700703E154C803AAF497E00EF64037015AD2C
:100707004BFCED7005754B018026ED64014C7020A4
:10071700F54B801CEF64044E7016E54B64017010B6
:100727000546D3E5469403748094804003754600DC
:100737001209B8D007D006D005D004D003D002D014
:0E07470001D000D0D0D082D083D0F0D0E032EC
:10000E005389F0438901E4F58A758CEEC28DD28C4A
:03001E00D2A92242
:100A6100D3EF9400EE940040147D6E7C00ED1D7078
:0D0A7100011CED4C70F7EF1F70E61E80E3D6
:010A7E002255
:10097800C2A58F807F017E00120989D2A77F057EDC
:01098800006E
:10098900D3EF9400EE940040257DC7EDD394007415
:1009990080948040127C01ECD39400748094804050
:0E09A900031C80F31D80E4EF1F70D51E80D26A
:0109B700221D
:0A0B2100C2A7C2A6120978C2A722DB
:070B10007417252EF8E6FF23
:0A0B1700C2A7D2A6120978C2A722D5
:100A9D007F38120B217F0C120B217F06120B217F49
:090AAD0001120B217F80020B21D4
:100AFE00ED7004AB078004EF2440FBEB4480FF0253
:020B0E000B21B9
:1009F3008B328A338934120AFEAB32AA33A93412FA
:100A030002E360130534E5347002053314F912026E
:080A1300E3FF120B1780E22241
:080755008F328D338A348B359D
:10075D00E4F542FBFAE53770047F3080027F208F8D
:10076D0043AE34AF357C007D0A12030EED2430FF0D
:10077D00AE42054274382EF8A607AE34AF357C0074
:10078D007D0A12030E8E348F35D3E5359400E53492
:10079D0094004006E542953640C7E542C395365074
:1007AD000CAF42054274382FF8A64380EDAD33AF40
:1007BD0032120AFEE54224FFFBE434FFFAC3EA6479
:1007CD00809480401074382BF8E6FF120B17EB1B4A
:0507DD0070EB1A80E83A
:0107E20022F4
:040508008F088D09C2
:10050C00AF0DAE0CAD0BAC0A1202628E118F12AC99
:10051C0011AD12E4120229A804A905AA06AB07AF73
:10052C000DAE0CAD0BAC0A1200298F168E158D1466
:10053C008C13E4F52CF52DF52EAF10FEEF70047D29
:10054C003080027D20AB05EF4E70047F3080027F3F
:10055C00208F2FAE11AF127C007D0A12030EED24FA
:10056C0030FFAE2B052B74172EF8A607AE11AF1269
:10057C007C007D0A12030E8E118F12D3E5129400AB
:10058C00E51194004006E52B950E40C7E52BC3956D
:10059C000E500CAF2B052B74172FF8A60380EDAD66
:1005AC0009AF08120AFEE52B24FFF52EE434FFF503
:1005BC002DC3E52D64809480400D120B10E52E1593
:1005CC002E70EE152D80EA7F2E120B17E4F52BF50D
:1005DC002CE52CC3950F5063AF16AE15AD14AC13B0
:1005EC00E4FBFA7920784112011E8F168E158D14BA
:1005FC008C13120262EF2430FFAE2B052B74172ED6
:10060C00F8A607AF16AE15AD14AC13C004C005C0E8
:10061C0006C007120262AC07E412022EA804A90558
:10062C00AA06AB07D007D006D005D0041200298F3C
:10063C00168E158D148C13052C8096E4F52DF52E45
:10064C00C3E52E952B7480F8652D98500D120B1068
:0A065C00052EE52E70EA052D80E65C
:010666002271
:060A5A00014E01014F00F6
:1008E300E54E6401703630B20930B30630B40320EC
:1008F300B52A054FD3E54F940474809480402CE4CB
:10090300F54FF54E20B2037F012220B3037F02226D
:1009130020B4037F032220B5127F042230B20C30AF
:0D092300B30930B40630B503754E017F00F6
:0109300022A4
:100A7F00D3EF9400EE940040147D6E7C00ED1D705A
:0D0A8F00011CED4C70F7EF1F70E61E80E3B8
:010A9C002237
:040B34007F0BDFFE56
:010B3800229A
:05000300007F0FDFFE8D
:0100080022D5
:040B39007F22DFFE3A
:010B3D002295
:100AE700D2977F017E00120A7FC2977F1E7E001277
:070AF7000A7FD29702000301
:100A1B00E4FEFDEDC394087480948050143097FD70
:100A2B00120003EE25E0FE3097010E2097FD0D809E
:030A3B00E2AF0621
:010A3E002295
:06086F008B328A3389344C
:10087500120AE72097653097FD120B39120A1B8F74
:1008850038120A1BA907120A1BAC07120A1BAB0771
:10089500120A1B8F3DE9FFE5382FFFE433FEEC75A7
:1008A50083002FFFE5833EFEEB2FFFE5833EFEE54C
:1008B5003DB5070EE583B50609853839893A8C3B80
:1008C5008B3CAB32AA33A934E5391202FCAB35AA0D
:0D08D50036A937E53B1202FC7F00227F01AF
:0108E20022F3
:100AB60053877F75985053890F438920758BFD7531
:090AC6008DFDC2ABD28ED2AC2230
:100ACF00ED60141202E3F5993099FDC29974012972
:080ADF00F9E43AFA1D80E92256
:03002300020B2BA2
:080B2B00309805859944C29839
:010B3300328F
:100026000202CEE86480F8E933E83360110460F038
:10003600ED33EC337009E8FCE9FDEAFEEBFF220440
:1000460060DED3EB9FEA9EE99DE8C2E78CF0C2F73B
:1000560095F0400CE8CCF8E9CDF9EACEFAEBCFFB07
:1000660012029985D0F05804700320D5B3E80470C5
:10007600075002B2D50202D892D5EC0460F7E4CC60
:10008600C0E0C398F8603B94186008400DD0E0FBD0
:100096000202B0E4FBFAC9FC8028E830E406E4C9B1
:1000A600FBE4CAFCE830E305E4C9CACBFCE8540724
:1000B6006010F8C3E913F9EA13FAEB13FBEC13FC2F
:1000C600D8F130F52FC3E49CFCEF9BFFEE9AFEEDD2
:1000D60099FDD0E0FBEF4E4D4C701222DB0302027D
:1000E600D5EC2CFCEF33FFEE33FEED33FDED30E7C0
:1000F600EB0202B0EF2BFFEE3AFEED39FDD0E0FB4E
:1001060050130BBB00030202D8ED13FDEE13FEEFF6
:0801160013FFEC13FC0202B020
:10011E00EC4D6011E8497017ED33EC3304600DE4DB
:10012E00FCFFFEFD22E933E8330470F80202CE1222
:10013E00029958046009E4CC248150062850090223
:10014E0002D82840030202D5C0E0EB4A7044B980C1
:10015E0006D0E0FB0202C4EF4E701CBD8008EBFF20
:10016E00EAFEE9FD80EBE98DF0A4FEE5F002020760
:10017E00E9CDF9EAFEEBFFEF89F0A4FCE5F0CE89BC
:10018E00F0A42EFFE435F0CD89F0A42DFEE435F079
:10019E008067EF4E7005BD80D780C3EF8BF0A4ACA7
:1001AE00F0EE8BF0A42CFCE435F0F8EF8AF0A42CE2
:1001BE00E5F038FCE433CB8DF0A42CFCE5F03BF8F5
:1001CE00EE8AF0A42CFCE5F038F8E433CF89F0A4E5
:1001DE002CFCE5F038CF3400CE89F0A42FFFE5F0EB
:1001EE003EFEE433C98DF0A42EFEE5F039CD8AF043
:1001FE00A42FFFE5F03EFEE43DFD33D0E0FB5007BB
:10020E000BBB000F0202D8EC2CFCEF33FFEE33FEDB
:06021E00ED33FD0202B009
:1002240075F020800E75F010800575F0087D007E55
:10023400007F003392D530D503120363EC334010B2
:10024400EF33FFEE33FEED33FDEC33FCD5F0ED225E
:0E025400E5F0247EA2D513CC92E7CDCEFF229A
:10026200EDD2E7CD33EC3392D524814006E4FFFE94
:10027200FDFC22FCE4CFCECDCC24E0501174FF80F3
:10028200EDC3CC13CCCD13CDCE13CECF13CF047090
:07029200F030D5DE0203632A
:10029900E9D2E7C933E833F892D5EDD2E7CD33ECAB
:0702A90033FC5002B2D52224
:1002B000EC30E7100FBF000C0EBE00080DBD0004AF
:1002C0000BEB6014A2D5EB13FCED92E7FD2274FF5B
:1002D000FCFDFEFF22E480F8A2D574FF13FC7D80B4
:0302E000E480EFC8
:1007EF00020371E493A3F8E493A34003F68001F2AC
:1007FF0008DFF48029E493A3F85407240CC8C3330B
:10080F00C4540F4420C8834004F456800146F6DFD9
:10081F00E4800B0102040810204080900A3FE47E20
:10082F00019360BCA3FF543F30E509541FFEE493CE
:10083F00A360010ECF54C025E060A840B8E493A395
:10084F00FAE493A3F8E493A3C8C582C8CAC583CAC0
:10085F00F0A3C8C582C8CAC583CADFE9DEE780BE78
:010A60000095
:1002E300BB010689828A83E0225002E722BBFE0219
:0902F300E32289828A83E493224C
:1002FC00BB010689828A83F0225002F722BBFE01E1
:02030C00F322DA
:10030E00BC000BBE0029EF8DF084FFADF022E4CCD3
:10031E00F875F008EF2FFFEE33FEEC33FCEE9DEC9C
:10032E00984005FCEE9DFE0FD5F0E9E4CEFD22EDE2
:10033E00F8F5F0EE8420D21CFEADF075F008EF2F2C
:10034E00FFED33FD4007985006D5F0F222C398FD1D
:05035E000FD5F0EA22BA
:0E036300C3E49FFFE49EFEE49DFDE49CFC22AB
:00000001FF
