:030000000207E60E
:0C07E600787FE4F6D8FD75815102082DE3
:1009340068656C6C6F20776F726C640D0A00202000
:100944007265616C20206461746120200068756D9B
:100954003A002020200074656D703A0048756D4897
:100964003A0020200048756D4C3A00546D70483AA6
:0709740000546D704C3A00C5
:100A3700014B00014C3C01471E014A28014E14019D
:0B0A47004F00014900014D0001480074
:10037100E4F531120A9512000E120AAED2AF7BFFDC
:100381007A0979347D0E120AC7C2AF753500753608
:10039100007537497B007A00794F1208728F30D28D
:1003A100AFE54D70597BFF7A097942FDFF1209EBE8
:1003B1007BFF7A0979517D01E4FF1209EBE54FFBDF
:1003C1007A007536027537017D017F041207557B6E
:1003D100FF7A0979567D017F061209EB7BFF7A09C5
:1003E100795A7D017F091209EBE549FB7A007536DF
:1003F100027537017D017F0E1207550204FEE54D9E
:10040100640160030204FE05317BFF7A097960FD16
:10041100FF1209EBE54CFB7A00753602753701E4F2
:10042100FD7F05120755E5487012E5315401700C46
:100431007BFF7A097966FD7F051209EB7BFF7A095B
:100441007966E4FD7F071209EB7BFF7A097969E49C
:10045100FD7F091209EBE547FB7A00753602753716
:1004610001E4FD7F0E120755E54864017012E53184
:100471005401700C7BFF7A097966FD7F0E1209EB3E
:100481007BFF7A09796F7D01E4FF1209EBE54AFBF5
:100491007A007536027537017D017F05120755E532
:1004A1004864027013E5315401700D7BFF7A0979BC
:1004B100667D017F051209EB7BFF7A0979667D0173
:1004C1007F071209EB7BFF7A0979757D017F09129C
:1004D10009EBE54EFB7A007536027537017D017F28
:1004E1000E120755E54864037013E5315401700D90
:1004F1007BFF7A0979667D017F0E1209EB7FC87E49
:0705010000120A5902038AEF
:10097B00E549D3954A4006C2A0D2A18011E549C3EF
:10098B00954E5006D2A0C2A18004D2A0D2A1E54FB1
:10099B00D3954C4005C2A2D2A322E54FC395475035
:0B09AB0005D2A2C2A322D2A2D2A32236
:03000B0002066783
:10066700C0E0C0F0C083C082C0D075D000C000C059
:1006770001C002C003C004C005C006C007758A00D8
:10068700758CEE1208E68F4B7E00EF64017033E540
:100697004D64016003020737AD48FCED7005054C5A
:1006A700020737ED64014C70050547020737ED6413
:1006B700024C7004054A8078ED64034C7072054E55
:1006C700806EEF64024E702EE54D64017062AF4894
:1006D700FEEF7004154C8058EF64014E7004154707
:1006E700804EEF64024E7004154A8044EF64034E57
:1006F700703E154E803AAF4B7E00EF64037015AD28
:100707004DFCED7005754D018026ED64014C7020A0
:10071700F54D801CEF64044E7016E54D64017010B2
:100727000548D3E5489403748094804003754800D6
:1007370012097BD007D006D005D004D003D002D051
:0E07470001D000D0D0D082D083D0F0D0E032EC
:10000E005389F0438901E4F58A758CEEC28DD28C4A
:03001E00D2A92242
:100A5900D3EF9400EE940040147D6E7C00ED1D7080
:0D0A6900011CED4C70F7EF1F70E61E80E3DE
:010A7600225D
:0609B600AB077F017E008B
:1009BC00D3EF9400EE940040257DC7EDD3940074E2
:1009CC0080948040127C01ECD3940074809480401D
:0E09DC00031C80F31D80E4EF1F70D51E80D237
:0109EA0022EA
:100B1F001209B6C2A7C2A6C2A58B80D2A7C2A722AE
:070ADF007417252EF8E6FF55
:100AE6001209B6C2A7D2A6C2A58B80D2A7C2A722D8
:100A95007F38120B1F7F0C120B1F7F06120B1F7F57
:090AA50001120B1F7F80020B1FE0
:100B0D00ED7004AA078004EF2440FAEA4480FF0246
:020B1D000B1FAC
:1009EB008B328A338934120B0DAB32AA33A93412F2
:1009FB0002E360130534E5347002053314F9120277
:080A0B00E3FF120AE680E2227B
:040755008F328D331F
:10075900E4F542F543F544E53770047F3080027FC4
:10076900208F457C007D0AAF03AE0212030EED24F3
:1007790030FFAE42054274382EF8A6077C007D0A88
:10078900AF03AE0212030EAA06AB07D3EB9400EA3D
:1007990094004006E542953640C9E542C395365076
:1007A9000CAF42054274382FF8A64580EDAD33AF42
:1007B90032120B0DE54224FFF544E434FFF543C33F
:1007C900E54364809480401474382544F8E6FF12A8
:0C07D9000AE6E544154470E7154380E390
:0107E50022F1
:040508008F088D09C2
:10050C00AF0DAE0CAD0BAC0A1202628E118F12AC99
:10051C0011AD12E4120229A804A905AA06AB07AF73
:10052C000DAE0CAD0BAC0A1200298F168E158D1466
:10053C008C13E4F52CF52DF52EAF10FEEF70047D29
:10054C003080027D20AB05EF4E70047F3080027F3F
:10055C00208F2FAE11AF127C007D0A12030EED24FA
:10056C0030FFAE2B052B74172EF8A607AE11AF1269
:10057C007C007D0A12030E8E118F12D3E5129400AB
:10058C00E51194004006E52B950E40C7E52BC3956D
:10059C000E500CAF2B052B74172FF8A60380EDAD66
:1005AC0009AF08120B0DE52B24FFF52EE434FFF5F3
:1005BC002DC3E52D64809480400D120ADFE52E15C5
:1005CC002E70EE152D80EA7F2E120AE6E4F52BF53F
:1005DC002CE52CC3950F5063AF16AE15AD14AC13B0
:1005EC00E4FBFA7920784112011E8F168E158D14BA
:1005FC008C13120262EF2430FFAE2B052B74172ED6
:10060C00F8A607AF16AE15AD14AC13C004C005C0E8
:10061C0006C007120262AC07E412022EA804A90558
:10062C00AA06AB07D007D006D005D0041200298F3C
:10063C00168E158D148C13052C8096E4F52DF52E45
:10064C00C3E52E952B7480F8652D98500D120ADF9A
:0A065C00052EE52E70EA052D80E65C
:010666002271
:060A5200015001015100FA
:1008E600E5506401703630B20930B30630B40320E7
:1008F600B52A0551D3E551940474809480402CE4C4
:10090600F551F55020B2037F012220B3037F022266
:1009160020B4037F032220B5127F042230B20C30AC
:0D092600B30930B40630B5037550017F00F1
:0109330022A1
:100A7700D3EF9400EE940040147D6E7C00ED1D7062
:0D0A8700011CED4C70F7EF1F70E61E80E3C0
:010A9400223F
:040B38007F0BDFFE52
:010B3C002296
:05000300007F0FDFFE8D
:0100080022D5
:040B3D007F22DFFE36
:010B41002291
:100AF600D2977F017E00120A77C2977F1E7E001270
:070B06000A77D297020003F9
:100A1300E4FEFDEDC394087480948050143097FD78
:100A2300120003EE25E0FE3097010E2097FD0D80A6
:030A3300E2AF0629
:010A3600229D
:060872008B328A33893449
:10087800120AF62097653097FD120B3D120A138F66
:1008880038120A13A907120A13AC07120A13AB0786
:10089800120A138F3DE9FFE5382FFFE433FEEC75AC
:1008A80083002FFFE5833EFEEB2FFFE5833EFEE549
:1008B8003DB5070EE583B50609853839893A8C3B7D
:1008C8008B3CAB32AA33A934E5391202FCAB35AA0A
:0D08D80036A937E53B1202FC7F00227F01AC
:0108E50022F0
:100AAE0053877F75985053890F438920758BFD7539
:090ABE008DFDC2ABD28ED2AC2238
:100AC700ED60141202E3F5993099FDC2997401297A
:080AD700F9E43AFA1D80E9225E
:03002300020B2F9E
:080B2F00309805859946C29833
:010B3700328B
:100026000202CEE86480F8E933E83360110460F038
:10003600ED33EC337009E8FCE9FDEAFEEBFF220440
:1000460060DED3EB9FEA9EE99DE8C2E78CF0C2F73B
:1000560095F0400CE8CCF8E9CDF9EACEFAEBCFFB07
:1000660012029985D0F05804700320D5B3E80470C5
:10007600075002B2D50202D892D5EC0460F7E4CC60
:10008600C0E0C398F8603B94186008400DD0E0FBD0
:100096000202B0E4FBFAC9FC8028E830E406E4C9B1
:1000A600FBE4CAFCE830E305E4C9CACBFCE8540724
:1000B6006010F8C3E913F9EA13FAEB13FBEC13FC2F
:1000C600D8F130F52FC3E49CFCEF9BFFEE9AFEEDD2
:1000D60099FDD0E0FBEF4E4D4C701222DB0302027D
:1000E600D5EC2CFCEF33FFEE33FEED33FDED30E7C0
:1000F600EB0202B0EF2BFFEE3AFEED39FDD0E0FB4E
:1001060050130BBB00030202D8ED13FDEE13FEEFF6
:0801160013FFEC13FC0202B020
:10011E00EC4D6011E8497017ED33EC3304600DE4DB
:10012E00FCFFFEFD22E933E8330470F80202CE1222
:10013E00029958046009E4CC248150062850090223
:10014E0002D82840030202D5C0E0EB4A7044B980C1
:10015E0006D0E0FB0202C4EF4E701CBD8008EBFF20
:10016E00EAFEE9FD80EBE98DF0A4FEE5F002020760
:10017E00E9CDF9EAFEEBFFEF89F0A4FCE5F0CE89BC
:10018E00F0A42EFFE435F0CD89F0A42DFEE435F079
:10019E008067EF4E7005BD80D780C3EF8BF0A4ACA7
:1001AE00F0EE8BF0A42CFCE435F0F8EF8AF0A42CE2
:1001BE00E5F038FCE433CB8DF0A42CFCE5F03BF8F5
:1001CE00EE8AF0A42CFCE5F038F8E433CF89F0A4E5
:1001DE002CFCE5F038CF3400CE89F0A42FFFE5F0EB
:1001EE003EFEE433C98DF0A42EFEE5F039CD8AF043
:1001FE00A42FFFE5F03EFEE43DFD33D0E0FB5007BB
:10020E000BBB000F0202D8EC2CFCEF33FFEE33FEDB
:06021E00ED33FD0202B009
:1002240075F020800E75F010800575F0087D007E55
:10023400007F003392D530D503120363EC334010B2
:10024400EF33FFEE33FEED33FDEC33FCD5F0ED225E
:0E025400E5F0247EA2D513CC92E7CDCEFF229A
:10026200EDD2E7CD33EC3392D524814006E4FFFE94
:10027200FDFC22FCE4CFCECDCC24E0501174FF80F3
:10028200EDC3CC13CCCD13CDCE13CECF13CF047090
:07029200F030D5DE0203632A
:10029900E9D2E7C933E833F892D5EDD2E7CD33ECAB
:0702A90033FC5002B2D52224
:1002B000EC30E7100FBF000C0EBE00080DBD0004AF
:1002C0000BEB6014A2D5EB13FCED92E7FD2274FF5B
:1002D000FCFDFEFF22E480F8A2D574FF13FC7D80B4
:0302E000E480EFC8
:1007F200020371E493A3F8E493A34003F68001F2A9
:1008020008DFF48029E493A3F85407240CC8C33307
:10081200C4540F4420C8834004F456800146F6DFD6
:10082200E4800B0102040810204080900A37E47E25
:10083200019360BCA3FF543F30E509541FFEE493CB
:10084200A360010ECF54C025E060A840B8E493A392
:10085200FAE493A3F8E493A3C8C582C8CAC583CABD
:10086200F0A3C8C582C8CAC583CADFE9DEE780BE75
:010A5800009D
:1002E300BB010689828A83E0225002E722BBFE0219
:0902F300E32289828A83E493224C
:1002FC00BB010689828A83F0225002F722BBFE01E1
:02030C00F322DA
:10030E00BC000BBE0029EF8DF084FFADF022E4CCD3
:10031E00F875F008EF2FFFEE33FEEC33FCEE9DEC9C
:10032E00984005FCEE9DFE0FD5F0E9E4CEFD22EDE2
:10033E00F8F5F0EE8420D21CFEADF075F008EF2F2C
:10034E00FFED33FD4007985006D5F0F222C398FD1D
:05035E000FD5F0EA22BA
:0E036300C3E49FFFE49EFEE49DFDE49CFC22AB
:00000001FF
