:03000000020546B0
:0C054600787FE4F6D8FD75814C02058D2D
:0A088B0052554E204D6F64653A008F
:0D081000014900014800014A0002460000B5
:1006D3001208951207CA120838D2AF7BFF7A08793D
:1006E3008BE4FDFF12075DE54AFB7A00753401E4F4
:1006F300F535FD7F091204B87F057E0012082480BA
:01070300DA1B
:03000B000205D219
:1005D200C0E0C0F0C083C082C0D075D000C000C0EF
:0D05E20001C002C003C004C005C006C00770
:1005EF00758A00758CEE12069D8F497E00EF6401AF
:1005FF007015AD4AFCED7005754A018018ED640168
:10060F004C7012F54A800EEF64024E7008E54A6492
:10061F00017002B2A0E54A701AFFFE12084B8F4814
:10062F00D3EF948074809480400720A104C2A080EF
:03063F0002D2A044
:10064200D007D006D005D004D003D002D001D0000C
:0B065200D0D0D082D083D0F0D0E032B6
:100838005389F0438901E4F58A758CEEC28DD28C18
:03084800D2A92210
:0808BD007F027EEFDEFEDFFC8E
:0108C5002210
:10082400AD07AC06ED1DAE0470011C4E6005120848
:04083400BD80F12270
:05088000120885D29072
:060885000000000000224B
:0A089500D290120885D29102088566
:0A089F00D291120880C29102088570
:0E07330025E0FF120785120741AF051207856A
:10074100E4FFD29012088530910DEFC394FF7480BD
:0C075100948050030F80F0C290020885D5
:0A08A900C291120880D29102088566
:10078500E4FEEEC39408748094805011EF25E0FFD9
:10079500C29012088592911208800E80E5C29012CF
:0707A5000885D290020885CF
:10070400C290120885D291E4FEEEC39408748094DA
:10071400805019D290120885D291EF25E0FDA29164
:0F072400E4334DFFC2901208850E80DD02088578
:1007FA00AE07AC0312089FEE120733AF0412078547
:06080A001207410208A9DB
:0207AC00AC0798
:1007AE0012089FEC12073312089FEC25E04401FF5C
:0C07BE001207851207411207040208A967
:070003001207FAE4FEFF22E0
:1007E3008B438A4489451207ACAB43AA44A945EF1E
:0707F3001202E4E4FEFF2204
:0908C600AB077D407F48020003EE
:10084B00EF4440FD7B007A0079427F481207E3AF0B
:01085B00425A
:01085C002279
:10065D00C2A58F807F017E0012066ED2A77F057E18
:01066D00008C
:10066E00D3EF9400EE940040257DC7EDD394007433
:10067E0080948040127C01ECD3940074809480406E
:0E068E00031C80F31D80E4EF1F70D51E80D288
:01069C00223B
:0A08B300C2A7C2A612065DC2A7226A
:07086F007417252EF8E6FFC7
:0A087600C2A7D2A612065DC2A72297
:1007CA007F381208B37F0C1208B37F061208B37F72
:0907DA00011208B37F800208B38C
:10085D00ED7004AB078004EF2440FBEB4480FF02F6
:02086D0008B3CE
:10075D008B308A31893212085DAB30AA31A9321241
:10076D0002CB60130532E5327002053114F9120225
:08077D00CBFF12087680E22296
:0804B8008F308D318A328B3345
:1004C000E4F540FBFAE53570047F3080027F208F31
:1004D00041AE32AF337C007D0A1202F6ED2430FFCC
:1004E000AE40054074362EF8A607AE32AF337C001E
:1004F0007D0A1202F68E328F33D3E5339400E53253
:1005000094004006E540953440C7E540C39534501B
:100510000CAF40054074362FF8A64180EDAD31AFE9
:100520003012085DE54024FFFBE434FFFAC3EA64BF
:10053000809480401074362BF8E6FF120876EB1B8F
:0505400070EB1A80E8D9
:010545002293
:040359008F088D0973
:10035D00AF0DAE0CAD0BAC0A12024A8E118F12AC62
:10036D0011AD12E4120211A804A905AA06AB07AF3C
:10037D000DAE0CAD0BAC0A1200118F168E158D142F
:10038D008C13E4F52CF52DF52EAF10FEEF70047DDA
:10039D003080027D20AB05EF4E70047F3080027FF0
:1003AD00208F2FAE11AF127C007D0A1202F6ED24C4
:1003BD0030FFAE2B052B74172EF8A607AE11AF121A
:1003CD007C007D0A1202F68E118F12D3E512940075
:1003DD00E51194004006E52B950E40C7E52BC3951E
:1003ED000E500CAF2B052B74172FF8A60380EDAD17
:1003FD0009AF0812085DE52B24FFF52EE434FFF557
:10040D002DC3E52D64809480400D12086FE52E15E7
:10041D002E70EE152D80EA7F2E120876E4F52BF561
:10042D002CE52CC3950F5063AF16AE15AD14AC1360
:10043D00E4FBFA792078411201068F168E158D1482
:10044D008C1312024AEF2430FFAE2B052B74172E9E
:10045D00F8A607AF16AE15AD14AC13C004C005C099
:10046D0006C00712024AAC07E4120216A804A90539
:10047D00AA06AB07D007D006D005D0041200118F05
:10048D00168E158D148C13052C8096E4F52DF52EF6
:10049D00C3E52E952B7480F8652D98500D12086FBD
:0A04AD00052EE52E70EA052D80E60D
:0104B7002222
:06081D00014B01014C003B
:10069D00E54B6401702430B20320B31E054CD3E545
:1006AD004C940474809480401AE4F54CF54B20B2C0
:1006BD00037F012220B30C7F022230B20630B30338
:0506CD00754B017F00E8
:0106D2002205
:10000E000202B6E86480F8E933E83360110460F068
:10001E00ED33EC337009E8FCE9FDEAFEEBFF220458
:10002E0060DED3EB9FEA9EE99DE8C2E78CF0C2F753
:10003E0095F0400CE8CCF8E9CDF9EACEFAEBCFFB1F
:10004E0012028185D0F05804700320D5B3E80470F5
:10005E00075002B2D50202C092D5EC0460F7E4CC90
:10006E00C0E0C398F8603B94186008400DD0E0FBE8
:10007E00020298E4FBFAC9FC8028E830E406E4C9E1
:10008E00FBE4CAFCE830E305E4C9CACBFCE854073C
:10009E006010F8C3E913F9EA13FAEB13FBEC13FC47
:1000AE00D8F130F52FC3E49CFCEF9BFFEE9AFEEDEA
:1000BE0099FDD0E0FBEF4E4D4C701222DB03020295
:1000CE00BDEC2CFCEF33FFEE33FEED33FDED30E7F0
:1000DE00EB020298EF2BFFEE3AFEED39FDD0E0FB7E
:1000EE0050130BBB00030202C0ED13FDEE13FEEF27
:0800FE0013FFEC13FC02029851
:10010600EC4D6011E8497017ED33EC3304600DE4F3
:10011600FCFFFEFD22E933E8330470F80202B61252
:10012600028158046009E4CC248150062850090253
:1001360002C02840030202BDC0E0EB4A7044B98009
:1001460006D0E0FB0202ACEF4E701CBD8008EBFF50
:10015600EAFEE9FD80EBE98DF0A4FEE5F00201EF91
:10016600E9CDF9EAFEEBFFEF89F0A4FCE5F0CE89D4
:10017600F0A42EFFE435F0CD89F0A42DFEE435F091
:100186008067EF4E7005BD80D780C3EF8BF0A4ACBF
:10019600F0EE8BF0A42CFCE435F0F8EF8AF0A42CFA
:1001A600E5F038FCE433CB8DF0A42CFCE5F03BF80D
:1001B600EE8AF0A42CFCE5F038F8E433CF89F0A4FD
:1001C6002CFCE5F038CF3400CE89F0A42FFFE5F003
:1001D6003EFEE433C98DF0A42EFEE5F039CD8AF05B
:1001E600A42FFFE5F03EFEE43DFD33D0E0FB5007D3
:1001F6000BBB000F0202C0EC2CFCEF33FFEE33FE0C
:06020600ED33FD02029839
:10020C0075F020800E75F010800575F0087D007E6D
:10021C00007F003392D530D50312034BEC334010E2
:10022C00EF33FFEE33FEED33FDEC33FCD5F0ED2276
:0E023C00E5F0247EA2D513CC92E7CDCEFF22B2
:10024A00EDD2E7CD33EC3392D524814006E4FFFEAC
:10025A00FDFC22FCE4CFCECDCC24E0501174FF800B
:10026A00EDC3CC13CCCD13CDCE13CECF13CF0470A8
:07027A00F030D5DE02034B5A
:10028100E9D2E7C933E833F892D5EDD2E7CD33ECC3
:0702910033FC5002B2D5223C
:10029800EC30E7100FBF000C0EBE00080DBD0004C7
:1002A8000BEB6014A2D5EB13FCED92E7FD2274FF73
:1002B800FCFDFEFF22E480F8A2D574FF13FC7D80CC
:0302C800E480EFE0
:100552000206D3E493A3F8E493A34003F68001F2E6
:1005620008DFF48029E493A3F85407240CC8C333AA
:10057200C4540F4420C8834004F456800146F6DF79
:10058200E4800B0102040810204080900810E47EF1
:10059200019360BCA3FF543F30E509541FFEE4936E
:1005A200A360010ECF54C025E060A840B8E493A335
:1005B200FAE493A3F8E493A3C8C582C8CAC583CA60
:1005C200F0A3C8C582C8CAC583CADFE9DEE780BE18
:0108230000D4
:1002CB00BB010689828A83E0225002E722BBFE0231
:0902DB00E32289828A83E4932264
:1002E400BB010689828A83F0225002F722BBFE01F9
:0202F400F322F3
:1002F600BC000BBE0029EF8DF084FFADF022E4CCEC
:10030600F875F008EF2FFFEE33FEEC33FCEE9DECB4
:10031600984005FCEE9DFE0FD5F0E9E4CEFD22EDFA
:10032600F8F5F0EE8420D21CFEADF075F008EF2F44
:10033600FFED33FD4007985006D5F0F222C398FD35
:050346000FD5F0EA22D2
:0E034B00C3E49FFFE49EFEE49DFDE49CFC22C3
:00000001FF
