:03000000020553A3
:0C055300787FE4F6D8FD75812E02059A31
:10084000C102C103C104C105C10101260001270085
:0D0850000221000002230000012500C1006C
:0E08BA001208721208A812042F1205DF80F82F
:1002A100AF267E00EF7030E50875F00A8485F02EE8
:1002B100E50875F00A84F52DE50975F00A8485F0E5
:1002C1002CE50975F00A84F52BE51775F00A84858C
:1002D100F02AE517020375EF64014E702FE51675DC
:1002E100F00A8485F02EE51675F00A84F52DE50BEC
:1002F10075F00A8485F02CE50B75F00A84F52BE581
:100301001575F00A8485F02AE5158068EF64024EC0
:10031100702FE50A75F00A8485F02EE50A75F00A5A
:1003210084F52DE50D75F00A8485F02CE50D75F049
:100331000A84F52BE51C75F00A8485F02AE51C80FA
:1003410033EF64034E7033E51B75F00A8485F02E9C
:10035100E51B75F00A84F52DE51875F00A8485F022
:100361002CE51875F00A84F52BE51A75F00A8485D9
:0B037100F02AE51A75F00A84F5292235
:10065500EF64017004F523F524E524452370423049
:10066500B40930B50630B60320B7360522E5227049
:10067500020521D39402E5216480948040347523DA
:1006850000752401E4F521F52220B403D2022220CD
:10069500B503D2032220B603D2042220B714D20513
:1006A5002230B40E30B50B30B60830B705E4F5236B
:0206B500F5242A
:0106B7002220
:1005DF00300236C202E527700A200107D201120845
:1005EF0092802230015F0527D3E52794057480940C
:1005FF00804003E4F527D3E527940274809480406C
:10060F0004752603227526022230031CC203300113
:10061F000302000EAF267E00EF700475260122EF55
:10062F0064014E7020F52622300408C204300115F3
:10063F0002015930050FC20530010AC20112037CB5
:06064F00E4F526F5272268
:1008920085080A85090D85171C85161B850B188589
:0608A2000C1985151A2255
:10000E00AF277E00EF7014050AD3E50A943B748087
:10001E0094805003020158E4F50A22EF64014E70F9
:10002E0014050DD3E50D943B7480948050030201AA
:10003E0058E4F50D22AF277E00EF64027014051C04
:10004E00D3E51C9417748094805003020158E4F594
:10005E001C22EF64034E6003020128051BAF18EF4C
:10006E006401601EEF64036019EF64056014EF64B1
:10007E0007600FEF6408600AEF640A6005EF640C16
:10008E007011D3E51B941F748094805003020158A5
:10009E00020124AF18EF6403600FEF6406600AEFED
:1000AE0064096005EF640B7010D3E51B941E748019
:1000BE0094805003020158805DE5186402600302CB
:1000CE000158E51524D0FBE434077C017D90AF0385
:1000DE00FE120714ED4C700DD3E51B941D74809425
:1000EE008040678031EB54037021E51524D0FFE486
:1000FE003407FE7C007D64120714ED4C600DD3E5D1
:10010E001B941D748094804041800BD3E51B941C7E
:10011E00748094804034751B0122AF277E00EF64FB
:10012E000470110518D3E518940C74809480401A4D
:10013E0075180122EF64054E7010051AD3E51A9456
:0B014E0063748094804003E4F51A22E3
:10015900AF277E00EF7012150AC3E50A6480948008
:1001690040030202A0750A3B22EF64014E7012158A
:100179000DC3E50D6480948040030202A0750D3B18
:1001890022AF277E00EF64027012151CC3E51C64C0
:1001990080948040030202A0751C1722EF64034E6D
:1001A9006003020272151BAF18EF6401601EEF6451
:1001B900036019EF64056014EF6407600FEF6408CA
:1001C900600AEF640A6005EF640C7012C3E51B94C2
:1001D900017480948040030202A0751B1F22AF188E
:1001E900EF6403600FEF6406600AEF64096005EFCE
:1001F900640B7012C3E51B94017480948040030260
:1002090002A0751B1E22E518640260030202A0E524
:100219001524D0FBE434077C017D90AF03FE12075F
:1002290014ED4C700DC3E51B9401748094805067E4
:100239008024EB54037023E51524D0FFE43407FE32
:100249007C007D64120714ED4C600FC3E51B94011B
:10025900748094805041751B1D22C3E51B94017461
:100269008094805032751B1C22AF277E00EF6404F6
:1002790070111518C3E5189401748094805018758D
:10028900180C22EF64054E700E151AC3E51A648026
:0802990094805003751A6322E2
:1008070030010E0525E52564507008B200F52580F6
:1008170002C200300022E52775F00384AFF0EFFD38
:10082700C374029DFDED25E0242AF8760AC37402FD
:080837009F25E02429F8760A50
:01083F002296
:1008A800758901758A78758CECC28DD28CD2A9D2E3
:0208B800AF226D
:03000B000207BB2E
:1007BB00C0E0C0F0C083C082C0D075D000C000C004
:1007CB0001C002C003C004C005C006C007758A780B
:1007DB00758CECE4FF1206551202A11208071204E5
:1007EB00C5D007D006D005D004D003D002D001D09D
:0C07FB0000D0D0D082D083D0F0D0E0320B
:0B08D6003F065B4F666D7D077F6F00E3
:0B085D00062900010203040501280029
:1004C5000528D3E5289407748094804003E4F52833
:1004D500E4F590E528B4080050659004E6F828286E
:1004E500730204FE02050002050A02051202051C3C
:1004F50002052602053002053A8044C2A2C2A1D2F5
:10050500A0E52A8042C2A2D2A1C2A0801AC2A2D26C
:10051500A1D2A0E52B8030D2A2C2A1C2A0E52C8039
:1005250026D2A2C2A1D2A075904022D2A2D2A1C247
:10053500A0E52D8012D2A2D2A1D2A0E52E8008C2BC
:0D054500A2C2A1C2A0E5299008D693F590AE
:010552002286
:0E08C80081838587898B8D80828486888A8CC7
:09086800070E555922090706206C
:0C076900EC9008CF93FF740E2CF8E6FD16
:10077500C2A300C2A400D2A300E4FEEEC394087491
:100785008094805011EF1392A5EFC313FFD2A400FC
:10079500C2A4000E80E5E4FEEEC394087480948044
:1007A5005011ED1392A5EDC313FDD2A400C2A40010
:0507B5000E80E5C2A367
:0107BA00221C
:1006B800C2A300C2A400D2A300E4FDEDC394087451
:1006C8008094805011EF1392A5EFC313FFD2A400BA
:1006D800C2A4000D80E500E4FDEDC3940874809485
:1006E80080501AA2A5E433FFC43333335480FCEEA0
:1006F800C3134CFED2A400C2A4000D80DCC2A30028
:0B070800D2A400D2A500C2A500AF06DD
:0107130022C3
:10087200E4FD7F8E120775E4FCECC3940774809448
:100882008050061207690C80F07D807F8E0207750A
:10042F00E4FBEBC39407748094805012EB9008C8E0
:10043F0093FF1206B8740E2BF8A6070B80E4E50E97
:10044F00C4540F75F00AA4FFE50E540F2FF508E5FD
:10045F000FC4540F75F00AA4FFE50F540F2FF509C1
:10046F00E510C4540F75F00AA4FFE510540F2FF5D3
:10047F0017E511C4540F75F00AA4FFE511540F2F9F
:10048F00F516E512C4540F75F00AA4FFE512540FC8
:10049F002FF50BE513C4540F75F00AA4FFE51354A1
:1004AF000F2FF50CE514C4540F75F00AA4FFE514D3
:0504BF00540F2FF5159C
:0104C4002215
:10037C00E4FD7F8E120775E50A75F00A84C454F00B
:10038C00FFE50A75F00A84E5F02FF50EE50D75F022
:10039C000A84C454F0FFE50D75F00A84E5F02FF5DE
:1003AC000FE51C75F00A84C454F0FFE51C75F00AC7
:1003BC0084E5F02FF510E51B75F00A84C454F0FFAA
:1003CC00E51B75F00A84E5F02FF511E51875F00AB8
:1003DC0084C454F0FFE51875F00A84E5F02FF5128B
:1003EC00E51975F00A84C454F0FFE51975F00A8418
:1003FC00E5F02FF513E51A75F00A84C454F0FFE507
:10040C001A75F00A84E5F02FF514E4FCECC394079C
:10041C007480948050061207690C80F07D807F8E6A
:03042C000207754F
:10055F000208BAE493A3F8E493A34003F68001F2F0
:10056F0008DFF48029E493A3F85407240CC8C3339D
:10057F00C4540F4420C8834004F456800146F6DF6C
:10058F00E4800B0102040810204080900840E47EB4
:10059F00019360BCA3FF543F30E509541FFEE49361
:1005AF00A360010ECF54C025E060A840B8E493A328
:1005BF00FAE493A3F8E493A3C8C582C8CAC583CA53
:1005CF00F0A3C8C582C8CAC583CADFE9DEE780BE0B
:010871000086
:10071400BC000BBE0029EF8DF084FFADF022E4CCC9
:10072400F875F008EF2FFFEE33FEEC33FCEE9DEC92
:10073400984005FCEE9DFE0FD5F0E9E4CEFD22EDD8
:10074400F8F5F0EE8420D21CFEADF075F008EF2F22
:10075400FFED33FD4007985006D5F0F222C398FD13
:050764000FD5F0EA22B0
:00000001FF
